:020000040800F2
:1000000078DA0020310300086774000831510008D5
:10001000657400088F17000815A300080000000091
:100020000000000000000000000000007102000855
:100030007D1A000800000000CD0200089D80000825
:100040004B0300084B0300084B0300084B03000858
:100050004B0300084B0300087F1A00084B030008FD
:100060004B030008851A00088B1A00084B03000890
:100070004B0300084B0300084B0300084B03000828
:100080004B0300084B0300084B030008A9170008A6
:10009000911700089D1700084B030008911A0008EB
:1000A0004B0300084B0300084B0300084B030008F8
:1000B0004B0300084B0300084B0300084B030008E8
:1000C0004B0300084B0300084B0300084B030008D8
:1000D0004B030008658600084B03000819870008D9
:1000E0004B0300084B0300084B0300084B030008B8
:1000F0004B0300086D8100084B0300080D19000830
:100100004B0300084B0300084B0300084B03000897
:100110004B0300084B0300084B0300084B03000887
:100120004B030008651900084B0300084B03000847
:100130004B0300084B0300084B030008CD170008D1
:10014000B5170008C11700084B030008A176000886
:10015000711900087D190008891900084B0300086F
:100160004B0300084B0300084B0300084B03000837
:100170004B0300084B0300084B030008000000007D
:100180004B0300084B03000800F002F800F060F891
:100190000AA090E8000C82448344AAF10107DA45E2
:1001A00001D100F055F8AFF2090EBAE80F0013F0D4
:1001B000010F18BFFB1A43F001031847A8D5000030
:1001C000C8D500000A444FF0000C10F8013B13F0B2
:1001D000070408BF10F8014B1D1108BF10F8015BA0
:1001E000641E05D010F8016B641E01F8016BF9D193
:1001F00013F0080F1EBF10F8014BAD1C0C1B09D1EA
:100200006D1E58BF01F801CBFAD505E014F8016B5B
:1002100001F8016B6D1EF9D59142D6D370470000ED
:100220000023002400250026103A28BF78C1FBD8FF
:10023000520728BF30C148BF0B6070471FB50CF094
:100240001BFC9DE8030000F091FF1FBD10B510BD21
:1002500000F0F8FF1146FFF7F1FF0AF03BFD01F057
:1002600016F803B4FFF7F2FF03BC01F047F80000F3
:100270002C4B19680868B0E8F04F80F30988BFF389
:100280006F8F4FF0000080F311887047000000006E
:1002900008480068006880F308884FF0000080F389
:1002A000148862B661B6BFF34F8FBFF36F8F00DF64
:1002B00000BF00BF08ED00E0DFF80C00016841F46A
:1002C00070010160704700BF88ED00E0EFF3098026
:1002D000BFF36F8F134B1A681EF0100F08BF20ED8D
:1002E000108A20E9F04F106009B44FF0500080F3FD
:1002F0001188BFF34F8FBFF36F8F0BF071FE4FF07C
:10030000000080F3118809BC19680868B0E8F04F54
:100310001EF0100F08BFB0EC108A80F30988BFF3FD
:100320006F8F7047DC020020EFF3058070470000FC
:100330000948804709480047FEE7FEE7FEE7FEE779
:10034000FEE7FEE7FEE7FEE7FEE7FEE704480549B5
:10035000054A064B704700005D81000889010008CE
:10036000789A002078DA002078BA002078BA002045
:100370009FED1A1AF5EE000A40EE010ABDEEE00A02
:10038000F5EEC00A10EE100AF1EE10FA38BF401E6A
:1003900000EE100A1349F7EE001AB8EEC00A30EE6C
:1003A000C00ADFED0F0A20EE200AFCEEC00A10EEB4
:1003B000900AC0F3080000EE900A01EB8000F8EE0E
:1003C000600A90ED011A70EE600A90ED000A71EE7D
:1003D000E01A21EE800A00EE810A704783F9223E7E
:1003E0000000004424CF0008DFED1D0AB5EEC00A6E
:1003F00060EE200ABDEEE01A11EE100AF1EE10FADE
:1004000038BF401E00EE100AB8EEC00A30EEC00A37
:10041000DFED140A20EE200AB4EEE00AF1EE10FA45
:10042000A8BF30EE600AFCEEC00A0F49F7EE001AD2
:1004300010EE900AC0F3080000EE900A01EB800075
:10044000F8EE600A90ED011A70EE600A90ED000A75
:1004500071EEE01A21EE800A00EE810A704700007A
:1004600083F9223E0000004424CF000870B40588C0
:100470000E884468D1F804C05368B54208D140885A
:100480004988884201BF11888D425188884203D033
:1004900070BC6FF00200704705FB00F1880827D0A0
:1004A00094ED001ADCED000A94ED010ADCED011A6E
:1004B00031EE201AD4ED020A70EE211A9CED020AE8
:1004C00083ED001AC3ED011A94ED031ADCED031A53
:1004D00030EE800A401E71EE210A83ED020A04F11B
:1004E0001004C3ED030A03F110030CF1100CD7D173
:1004F00011F0030030D0B0F1004F30D200282BDDD6
:10050000211F1B1FACF1040210F0010F0AD091ED66
:10051000010AD2ED010A091D121D30EE200A83EDF9
:10052000010A1B1D400817D091ED010AD2ED010A06
:10053000401E30EE200A83ED010A91ED020AD2ED51
:10054000020A01F1080102F1080230EE200A83EDEF
:10055000020A03F10803E7D170BC00207047B4EC35
:10056000010A401EFCEC010A30EE200AA3EC010A4D
:10057000F5D1F1E701804280436070472DE9F34FE8
:1005800084B0049840680090486801900498B0F8DE
:1005900000E04588DFEDFE0A00200290B0EE600A20
:1005A000AE4506D108884988884204BF7146864511
:1005B00004D06FF0020006B0BDE8F08F01985FEA4A
:1005C000010C18BFB7EE001A3DD000BFBEEB0C0106
:1005D00017D0B1F1004F80F01F82002911DD021FFA
:1005E00011F0010F1CBFC2ED010A121D4B1006D005
:1005F000C2ED010AC2ED020A08325B1EF8D100EB1F
:100600008100BCF10102A0EC011A19D0B2F1004F37
:1006100080F00882002A13DD031F12F0010F1CBFB7
:10062000C3ED010A1B1D511008D000BFC3ED010A24
:10063000C3ED020A491E03F10803F7D100EB820063
:10064000BCF1010CC2D14FF000080395002D14BF7E
:10065000B0EE602A002000F0BF8100BF009908FBC7
:1006600005F001EB800B0199DBED002A01EB800026
:100670000346F0EE421AC64552D9AEEB0802ABEB88
:10068000850112F0010F17D001EB850191ED000AF1
:10069000B5EEC00AF1EE10FA07DDB4EEE10AF1EEB4
:1006A00010FA09DDF0EE401A06E0B1EE400AF4EE71
:1006B000C01AF1EE10FAF5D3521031D001EB850CCF
:1006C0009CED000AB5EEC00AF1EE10FA05DDB4EEBD
:1006D000E10AF1EE10FA09DD06E0B1EE400AF4EEAF
:1006E000C01AF1EE10FA01D2F0EE401A01EBC5018A
:1006F00091ED000AB5EEC00AF1EE10FA05DDB4EE98
:10070000E10AF1EE10FA09DD06E0B1EE400AF4EE7E
:10071000C01AF1EE10FA01D2F0EE401A521ECDD1FD
:10072000F5EEC01AF1EE10FA00F07381F5EEC02A72
:100730000126F1EE10FA0099D4BFB1EE620AB0EED4
:10074000620AB4EE610AF1EE10FA1CBFAEEB0802C9
:10075000B2F1010C47D005FB08F201EB820292EDE9
:10076000001A00BFB0EE410A05FB06F4B5EEC00A60
:1007700000EB8404F1EE10FACCBFF0EE400AF1EE8B
:10078000400AF4EE610AF1EE10FA28D1B5EB080C3C
:1007900011D0BCF1004F7DD2BCF1000F0BDD00BFCA
:1007A00092ED000AD1ED000ABCF1010CE2EC010A65
:1007B000A1EC010AF4D129000ED0B1F1004F6AD2A8
:1007C000002909DD94ED000AD0ED000A491EE4EC91
:1007D000010AA0EC010AF5D1012002900BE0761C81
:1007E000BCF1010CBED10298012804D0F5EEC02A5C
:1007F000F1EE10FA7ED09BED000AB5EB08009A46A8
:100800005946064622D0B0F1004F74D200281DDDB3
:10081000091F10F0010F06D0F0EE400A80EEA01A7A
:1008200081ED011A091D401010D000BFD1ED010A61
:10083000401E80EE801A81ED011A91ED021AC1EE80
:10084000000AC1ED020A01F10801EFD1280026D00B
:10085000B0F1004F7ED2002821DDAAF1040110F092
:10086000010F06D0D1ED010A80EE801A81ED011A48
:10087000091D401013D000BFD1ED010A401E80EECB
:10088000801A81ED011AD1ED020A80EE801A81ED05
:10089000021A01E0CBE0D6E001F10801ECD1DDE97C
:1008A00000124FF000095FEA0E0773D0C14504BF84
:1008B00001EB860102EB850274D091ED000ADC4663
:1008C0005046331E35D01C46B6F1004F7ED2002C68
:1008D0002FDD0B1FABF1040C16F0010F0FD0F0EE63
:1008E000400ADCED011AB0EE601A00EEE11A83ED69
:1008F000011A01E08DE0B1E01B1D0CF1040C741035
:1009000015D000BFD3ED010A9CED011A40EE410A5B
:10091000C3ED010AD3ED020A9CED021A0CF1080C9A
:1009200040EE410AC3ED020A0833641EEAD101EB2E
:1009300086012B0036D0B3F1004F72D2002B31DD8F
:10094000A2F1040CAAF1040013F0010F0CD0DCEDAD
:10095000010A00E08BE090ED011A001D40EE410A13
:10096000CCED010A0CF1040C5C1019D0DCED010A8D
:1009700090ED011A40EE410ACCED010ADCED020ACD
:1009800090ED021A083040EE410ACCED020A03E075
:10099000000000000DE005E0641E0CF1080CE5D13C
:1009A00002EB830201EB88017F1E09F101097FF44C
:1009B0007DAF009808F10108001D00900398401ECB
:1009C00003907FF44BAE0299012900E058E004BF88
:1009D00006B0BDE8F08F00BFB5EEC00AF1EE10FA28
:1009E0007FF4E9AD04990EFB05F3002B4A684FF044
:1009F00000010BD902EB810C9CED000AB5EEC00A98
:100A0000F1EE10FA02D1491C8B42F3D88B427FF4ED
:100A1000D2AD6FF00400CEE5E0EC010A491EFBD137
:100A2000EFE538E0E0EC010A521EFBD108E692ED5A
:100A3000000AD1ED000ABCF1010CE2EC010AA1ECC4
:100A4000010AF4D1B7E694ED000AD0ED000A491E80
:100A5000E4EC010AA0EC010AF5D1BDE6D1ED000AF3
:100A6000401E80EE801AA1EC011AF7D1EEE6D3ED1C
:100A7000000A401E80EE801AA3EC011AF7D10EE79F
:100A8000BCEC011AD1ED000A5B1E40EE410AE1EC1C
:100A9000010AF5D14DE7B0EC011AD2ED000A5B1E58
:100AA00040EE410AE2EC010AF5D17BE72DE9F04F77
:100AB00082B0466853680193058847884B880020B8
:100AC00000900888874201BFB2F800C0654552888F
:100AD00093421EBF6FF0020002B0BDE8F08F9FEDA1
:100AE000412A4FEA970EC7F3400B00BFDDE9000231
:100AF00002EB800A4A6898464FF00009B0EE420ABD
:100B0000B4465FEA0E0025D092ED001ADCED001A23
:100B100002EB8302DCED010A01EE810A92ED001A7C
:100B200002EB8302401ED2ED001A02EB830200EEBC
:100B3000810A9CED021ADCED030A00040CF1100C92
:100B4000000C01EE210A92ED001A02EB830200EE86
:100B5000810AD9D117F0030026D0ACF10404A2EB2E
:100B6000830210F0010F08D002EB8302D4ED010ADA
:100B700092ED001A241D00EE810A5FEA0B0013D0EB
:100B800002EB830CD4ED010A9CED001A02EBC302C8
:100B9000401E00EE810AD4ED020A92ED001A04F123
:100BA000080400EE810AEBD109F10100AAEC010A68
:100BB0001FFA80F9486800EB8902A8F101001FFACA
:100BC00080F8B8F1000F99D1009806EB8706184419
:100BD00080B20090681E05042D0C87D102B0002061
:100BE000BDE8F08F0000000070B405880E884468EE
:100BF000D1F804C05368B54208D14088498888427A
:100C000001BF11888D425188884203D070BC6FF0BB
:100C10000200704705FB00F1880827D094ED001A08
:100C2000DCED000A94ED010ADCED011A31EE601AE8
:100C3000D4ED020A70EE611A9CED020A83ED001AEF
:100C4000C3ED011A94ED031ADCED031A30EEC00A6D
:100C5000401E71EE610A83ED020A04F11004C3ED37
:100C6000030A03F110030CF1100CD7D111F00300AB
:100C700030D0B0F1004F30D200282BDD211F1B1FD8
:100C8000ACF1040210F0010F0AD091ED010AD2ED8F
:100C9000010A091D121D30EE600A83ED010A1B1DB9
:100CA000400817D091ED010AD2ED010A401E30EE46
:100CB000600A83ED010A91ED020AD2ED020A01F108
:100CC000080102F1080230EE600A83ED020A03F126
:100CD0000803E7D170BC00207047B4EC010A401E45
:100CE000FCEC010A30EE600AA3EC010AF5D1F1E751
:100CF0002DE9F04F02884768B0F802804888D1F8A3
:100D0000049082B04FF0000A1646824207BF09885D
:100D100088456FF0020002B018BFBDE8F08F4FEABF
:100D2000980B02EB42000190C8F34000CDF80000A0
:100D300009EB8A01BBF1000F33D0019801EB820C63
:100D400001EB80043B46E64601EBC2054FEA0B008F
:100D500093ED000A401E81ED000A93ED010A01EBBC
:100D600002118CED000A93ED020A0CEB021C85EDDA
:100D7000000A93ED030A05EB021584ED000A04EB6B
:100D8000021403F11003E3D10EEB820000EB8200AA
:100D900000EB8201ABF10100504307EB0B1701EBB5
:100DA000001118F0030C21D03B1FA1EB82011CF0B5
:100DB000010F06D093ED010A01EB82011B1D81EDAD
:100DC000000A009880B100BF93ED010A01EB820494
:100DD00001EBC20184ED000A93ED020A401E81ED91
:100DE000000A03F10803EFD107EB8C070AF10100B9
:100DF0001FFA80FA701E0604360C99D102B000204A
:100E0000BDE8F08F70B5064600F094F9056806F16C
:100E10000B0020F00704B4429CBF002070BD2B469D
:100E20006A68BAB11068A04210D304F10801884280
:100E30003CBF5068586007D3516810194160116871
:100E4000091B016058601460101D70BD1346526884
:100E5000002AE7D12146284600F074F90028DED1A7
:100E600070BD70B50446051F00F064F90068002CE1
:100E700014BF446870BD002C18BFAC423CBF204674
:100E80006468F8D301680A18AA4218BF456003D104
:100E90002A6805461144016028684119A1421CBF17
:100EA0006C6070BD6168696021680844286070BD2D
:100EB00053EA020C00F069802DE9F04B4FF0000678
:100EC000002B1FBFB3FA83F503FA05F424FA05F6E5
:100ED0005E4012BF1643B2FA82F502FA05F4C5F17C
:100EE00020051EBF22FA05FC44EA0C04203556EA10
:100EF000044C4FEA144418BF641C4FF000084FF034
:100F00000009904271EB030C39D3002919BFB1FAE3
:100F100081F701FA07F6B0FA80F700FA07F6C7F191
:100F200020071EBF20FA07FC46EA0C062037B6FB56
:100F3000F4FCA7EB0507103F07F01F0BCBF12006D1
:100F40000CFA0BFB2CFA06F644BFB3460026202F02
:100F5000A4BF5E464FF0000B5BEA060C08BF4FF0E3
:100F6000010B19EB0B09ABFB027C48EB0608C01B1D
:100F700006FB02CC0BFB03CC71EB0C01C1E70B466B
:100F8000024641464846BDE8F08B13B54FF00000DD
:100F90004FF00001AFF30080BDE81C407047032A0A
:100FA00040F2308010F0030C00F0158011F8013B86
:100FB000BCF1020F624498BF11F801CB00F8013B6D
:100FC00038BF11F8013BA2F1040298BF00F801CB31
:100FD00038BF00F8013B11F0030300F02580083A08
:100FE000C0F0088051F8043B083A51F804CBA0E85F
:100FF0000810F5E7121D5CBF51F8043B40F8043BB4
:10100000AFF30080D20724BF11F8013B11F801CBE8
:1010100048BF11F8012B24BF00F8013B00F801CBB9
:1010200048BF00F8012B704710B5203AC0F00B8084
:10103000B1E81850203AA0E81850B1E81850A0E8DC
:101040001850BFF4F5AF5FEA027C24BFB1E8185036
:10105000A0E8185044BF18C918C0BDE810405FEAA6
:10106000827C24BF51F8043B40F8043B08BF704722
:10107000D20728BF31F8023B48BF11F8012B28BF27
:1010800020F8023B48BF00F8012B704702F0FF0335
:1010900043EA032242EA024200F002B84FF00002A3
:1010A0000429C0F0128010F0030C00F01B80CCF17A
:1010B000040CBCF1020F18BF00F8012BA8BF20F8E8
:1010C000022BA1EB0C0100F00DB85FEAC17C24BF3C
:1010D00000F8012B00F8012B48BF00F8012B7047E6
:1010E0004FF0000200B5134694469646203922BFC1
:1010F000A0E80C50A0E80C50B1F12001BFF4F7AF0C
:10110000090728BFA0E80C5048BF0CC05DF804EBED
:10111000890028BF40F8042B08BF704748BF20F85B
:10112000022B11F0804F18BF00F8012B7047704759
:101130007047704700487047209A002070477047FA
:101140007047704738B504460A4600206946AFF339
:101150000080002808BF38BD02460099204600F0F4
:101160004FF8012038BD012000F064B8F8B5AFF3A6
:101170000080054600200C46102000BF0646A81936
:10118000A0420DD9324669460020AFF30080070027
:1011900008BF00F04FF80098A04218BF0546C419D8
:1011A000FFF7C8FF05600746F01D20F0070046194D
:1011B000284600F00AF8B44208BFF8BDA21B314629
:1011C0003868BDE8F84000F01BB800210160C0E9B4
:1011D000011070471020704710B500F00DF800683E
:1011E00010BD10B5044600F007F8046010BD000003
:1011F00000487047189A002000487047189A00204D
:10120000034640688C46002818BF88423CBF03460E
:101210004068F8D318681844884207D00CF10300DE
:1012200020F00700001D411A521A0146081D0A60ED
:10123000FFF717BE10B500F039F8BDE8104000F018
:101240002FB870477546FFF7D3FFAE4605006946D5
:10125000534620F00700854618B020B5FFF776F812
:10126000BDE820404FF000064FF000074FF00008A7
:101270004FF0000B21F00701AC46ACE8C009ACE828
:10128000C009ACE8C009ACE8C0098D46704710B58C
:101290000446AFF300802046BDE81040FEF7E1BFF2
:1012A000002801D000F02AB87047000010B50128CE
:1012B00005D0002103A000F027F8012010BD09A1EE
:1012C000F8E7000053494752544D454D3A204F75B9
:1012D00074206F662068656170206D656D6F72792E
:1012E000000000003A2048656170206D656D6F72E6
:1012F0007920636F727275707465640001491820FB
:10130000ABBEFEE72600020070B505460C460A207B
:1013100000E06D1C00F011F835B128780028F8D1F4
:1013200002E0641C00F009F814B120780028F8D11C
:10133000BDE870400A20AFF3008008B569468DF81B
:1013400000000320ABBE08BD464910B54A6822F430
:1013500040324A604A6843681A434A6001684A68F2
:1013600022F480724A6001684A68036942EA0322F3
:101370004A6001684A6822F040724A6001684A681F
:1013800083681A434A6001688A6822F400628A60AE
:1013900001688A68C3681A438A60816A6FF0706264
:1013A000D14201688A6822F070628A6001688A68A6
:1013B0000CD0836A1A438A6001688A6822F040521E
:1013C0008A6001688A68C36A1A4301E022F04052C9
:1013D0008A6001688A6822F002028A6001688A686D
:1013E000037E42EA43028A6090F8201000290168D7
:1013F0004A680FD042F400624A6001684A6822F4E9
:1014000060424A6001684A68174C436A04EB433300
:101410001A4301E022F400624A600168CA6A22F4B9
:101420007002CA620168CA6A838B104C04EB0353D2
:101430001A43CA6201688A6822F400728A600168ED
:101440008A6890F8303042EA43228A6001688A68EC
:1014500022F480628A6001688A68406942EA8020DA
:10146000886010BD0023014000E0FFFF0000F0FF96
:1014700001221021014801F0C5BA0000000002401D
:1014800000221021014801F0BDBA00000000024016
:1014900001221146014801F0B5BA000000040240E3
:1014A00000220121014801F0ADBA00000004024011
:1014B00070B50546FFF7E4FF922000F0E1F8062240
:1014C0006549122000F0CAF8FFF7D2FF624CA4F180
:1014D0001C0660782178000200B2084300EE100A72
:1014E000D6ED030AB8EEC00A60EE200A95ED080AB0
:1014F00060EE800AC5ED000AE078A178000200B233
:10150000084300EE900A96ED031AF8EEE00A60EE4A
:10151000810A60EE800AC5ED010A60792179000236
:1015200000B2084300EE900A3081F8EEE00A60EE67
:10153000810A20EE800A85ED020AFFF7B1FF08223A
:101540002146002000F08AF8FFF7A2FF20780F283C
:101550005AD1F078A1780028E0784FEA002000B254
:1015600040EA01002BD000EE100AD5ED090AB8EED2
:10157000C01A96ED040A51EE000AC5ED030A60791F
:101580002179000200B2084300EE900A95ED0A1A94
:10159000F8EEE00A10EE801A85ED041AE079A179E0
:1015A000000200B2084300EE900A308195ED0B1A5C
:1015B000F8EEE00A10EE801A85ED051A24E000EE40
:1015C000100AF8EEC00A96ED040A60EE800AC5ED36
:1015D000030A60792179000200B2084300EE900A04
:1015E000F8EEE00A60EE800AC5ED040AE079A17920
:1015F000000200B2084300EE900A3081F8EEE00AE3
:1016000020EE800A85ED050AFFF73AFFA22000F0E0
:1016100037F802221049222000F020F8FFF728FFB7
:1016200020786178C00040EA51103081B0F5806FB9
:1016300002DBA0F500603081B6F90800B4EE001AB4
:1016400000EE100AF8EEC00AB3EE070A00EE810AB7
:1016500085ED070A70BD0000AC01002070B514468E
:101660000D4640F0800000F00BF806E0552000F039
:1016700007F8641E05F8010BE4B2002CF6D170BD2A
:1016800001B582B04FF47A7000900548012301AA99
:1016900002A9006802F036FE9DF804000EBD0000AD
:1016A000D8010020B6EE000AD2ED020AF0EE401A90
:1016B00092ED031A40EEE01A90ED002AD2ED012AD5
:1016C000D0ED013A22EEA03A41EE411A21EE822AF3
:1016D000D2ED001A01EEC13A22EE811A01EEA01AF3
:1016E00003EE232AD0ED020AF0EE001A01EE202AC2
:1016F00062EE210AC1ED000A92ED011AD2ED023A22
:1017000092ED002AD2ED030A61EE232A90ED003A11
:1017100090ED014A42EE202A62EE832AB0EE403A72
:1017200001EE413A00EEE03A63EEA00A42EE410AD1
:1017300043EE042A90ED021A40EE812A62EEA10ADD
:10174000C1ED010A92ED011AD2ED032AD2ED020A8F
:1017500092ED003A21EE222A60EEA22AD0ED003A64
:1017600001EE410A03EE602A43EE012A90ED013AB0
:1017700000EEE00A22EE232AD0ED020A02EE832ACE
:1017800000EE202A22EE210A81ED020A7047FEE7D0
:10179000014800F006BC0000500E0020014800F097
:1017A00000BC0000500E0020014800F0FABB000011
:1017B000500E0020014800F0F4BB0000780E00201D
:1017C000014800F0EEBB0000780E0020014800F058
:1017D000E8BB0000780E002038B5054C21600021E0
:1017E000A160C4E903136B46214600F001FB38BD3C
:1017F0007432002038B50E4C4FF40075256000257A
:10180000A560E560082525610A4C050A2570607011
:10181000080AA070E170100A20716271180AA071A4
:10182000E3716B4622460249034800F0E1FA38BDF5
:101830008C320020E4000020500E002038B50E4C01
:1018400040F2FF1525600025A560E56008252561AB
:101850000A4C050A25706070080AA070E170100A31
:1018600020716271180AA071E3716B462246024929
:10187000034800F0BDFA38BD74320020DC000020BF
:10188000500E002008B50C4A40F2FF1108231160E9
:1018900000219160C2E90313084A030A11705170D4
:1018A0009170D170137150719171D1716B46024971
:1018B000034800F09DFA08BD74320020DC000020CF
:1018C000500E0020002070470020704710B5002205
:1018D0000449054807F09CF90449034807F08BF9CF
:1018E000002010BDE429002004160020E42100207F
:1018F00010B50146034807F07EF9024807F054F995
:10190000002010BD0416002000207047124A10B5B8
:10191000506800011ED5114B114C586B01684FF0F7
:101920000060A14202D90E494C3905E00A4CB83496
:10193000A14203D90A495039086006E0064C5834E0
:10194000A14201D9D06000E090601868016841F4BC
:101950000071016010BD000000600240F40E002024
:1019600058640240014800F0F3BD00004415002017
:10197000014800F0EDBD000084140020014800F093
:10198000E7BD0000A4150020014800F0E1BD000003
:101990002414002001681823CAB2103AB2FBF3F2F3
:1019A000054B6FF30901032A9B5CC36500D9091D30
:1019B000816508467047000004CF000810B5014655
:1019C00000208B698A6A4FF0C07453B1B3F5005F91
:1019D00015D072B1012A0CD0022A0AD0032A09D1EB
:1019E00004E01AB1012A06D0022A03D1C96AC9014A
:1019F00000D5012010BDC96AA142FAD010BD002A4D
:101A0000F7D0012AF2D0022AF3D0032AF3D010BD76
:101A1000074808B5406800900146064802699142AF
:101A200002D2C168491CC1600099016108BD000073
:101A3000001000E05001002000B50E492DED028B92
:101A400081B0496800910168009A511A00EE101A9D
:101A50000949F8EE400A91ED000A0260B8EE400A2A
:101A600080EE808AFFF7D4FF01B0B0EE480ABDECEB
:101A7000028B00BD001000E05001002070470120E3
:101A800000F0B4BE082000F0B1BE102000F0AEBEE1
:101A9000202000F0ABBEB6EE000AD2ED020AF0EE56
:101AA000401A92ED031A40EEE01A90ED002AD2EDB2
:101AB000012AD0ED013A22EEA03A41EE411A21EE80
:101AC000822AD2ED001A01EE813A22EE811A01EE4D
:101AD000E01A03EE232AD0ED020AF0EE001A01EE1E
:101AE000202A62EE210AC1ED000A92ED011AD2ED20
:101AF000023A92ED002AD2ED030A61EE232A90ED1C
:101B0000003A90ED014A42EE602A62EE832AB0EE7E
:101B1000403A01EE413A00EEE03A63EEA00A42EEAE
:101B2000010A43EE042A90ED021A40EE812A62EE89
:101B3000A10AC1ED010A92ED011AD2ED032AD2EDFC
:101B4000020A92ED003A21EE222A60EEA22AD0ED9E
:101B5000003A01EE410A03EE202A43EE412A90EDBD
:101B6000013A00EEE00A22EE232AD0ED020A02EE4C
:101B7000832A00EE202A22EE210A81ED020A704714
:101B800030B4E72404707E24447010EE103A01242F
:101B900010EE902A847011EE101AC0F80330C0F8CD
:101BA0000720C0F80B1030BC112108F037BE30B44C
:101BB000E725029C05707E25457002258570C17061
:101BC00002714371847130BC092108F027BE72B6DE
:101BD000FEE7000078B50024009490F83C20012A2C
:101BE00019D0012280F83C200A6807230568092AD9
:101BF00013D9EE680A3A02EB420293409E43EE602C
:101C00000B788A680A3B03EB43039A400368DD685C
:101C10002A43DA6010E0022078BD2E6902EB42020E
:101C200093409E432E610B788A6803EB43039A40EE
:101C300003681D692A431A614A681F23072A13D2C1
:101C400005686E6B521E02EB820293409E436E63E8
:101C50000B790A885B1E92B203EB83039A400368F8
:101C60005D6B2A435A6327E005680D2A12D22E6B5A
:101C7000D21F02EB820293409E432E630B790A88A7
:101C8000DB1F92B203EB83039A4003681D6B2A4368
:101C90001A6311E0EE6A0D3A02EB820293409E4312
:101CA000EE620B790A880D3B92B203EB83039A40F4
:101CB0000368DD6A2A43DA62164B0568144A9D42BE
:101CC00006D10D68122D03D1556845F48005556085
:101CD00005689D4218D10B68102B01D0112B13D130
:101CE000536843F400035360096810290CD10A4972
:101CF0000A4A0968B1FBF2F101EB8101490000E0F9
:101D0000491E00910029FBD180F83C40002078BD9D
:101D10000023014000200140D802002040420F0073
:101D200070B504004FF0000503D0206C002610B100
:101D300007E0012070BD204600F01CF8666484F8BE
:101D40003C60206CC00610D4206C20F4885040F019
:101D5000020020642046FFF7F7FA6664206C20F04A
:101D6000020040F00100206400E0012584F83C609E
:101D7000284670BD10B586B0044614216846FFF7AA
:101D8000AFF9174B2268002116489A4209D1016821
:101D900041F480710160006800F48070059006B025
:101DA00010BD114B9A42FAD1026842F4806202607F
:101DB000006800F4806005900A481438026842F018
:101DC00020020260006800F02000059018150090C5
:101DD0000320CDE901016946044800F013FDDEE768
:101DE000002001404438024000220140001402401B
:101DF000F0B590F820500468A468012D05D0022D9C
:101E000003D0416A41F480214DE014F0406F01D1CC
:101E1000E50045D5C4F301640125A5401D608D682A
:101E20004FF4C0739DB1CE6835434E6845EAC60590
:101E3000066803EB0417F5514FF4C275076805EB0C
:101E400004150E697E51097D012905D009E00E882F
:101E5000CD6845EA4655EBE701684E5946F4807671
:101E60004E511179D2F805504FF4C67641EA05215A
:101E7000056806EB0416A9511178D2F801204FF439
:101E8000C47541EA0221026805EB0415515100684E
:101E900003EB0411425842F0010242500020F0BD11
:101EA000416A41F4001141620120F0BD704770B5F4
:101EB00090F82040012C05D0022C03D0416A41F457
:101EC000802128E0046809B32469A40720D04FF4D6
:101ED000D874056804EB01142D5915F004059560BC
:101EE00005682D591AD0ED08556005682C5904F085
:101EF0000204D4604FF4DA74056804EB01142E591F
:101F000006F00F06082E0CD308250DE0E468DCE788
:101F1000416A41F400114162012070BD6D0D1560F0
:101F2000E3E72D5905F00F05156105682D59C5F337
:101F30000725956105682C59240C54614FF4DC7217
:101F4000046802EB0112A4581C700468A458240A07
:101F50005C700468A458240C9C700468A258120E8B
:101F6000DA704FF4DE72046802EB0112A4581C719F
:101F70000468A458240A5C710468A458240C9C7159
:101F80000468A258120EDA71006829B1016941F0A3
:101F900020010161002070BDC16841F02001C160D5
:101FA000F8E72DE9F05F0546006800244669D0F89F
:101FB00004908768D0F80CB0D0F810A0D0F8188042
:101FC000F10748D0F90714D001218160B80703D583
:101FD000284600F091FA0CE0780702D54FF400642F
:101FE00007E0380702D54FF4805402E0284600F09D
:101FF00082FAF80516D529684FF480708860B80514
:1020000003D5284600F07AFA0CE0780502D544F4AE
:10201000005407E0380502D544F4804402E0284625
:1020200000F06BFAF80316D529684FF48030886009
:10203000B80303D5284600F063FA0CE0780302D514
:1020400044F4004407E0380302D544F4803402E04D
:10205000284600F054FA300707D55FEACB6004D574
:102060002968102044F40074C86070074FF0080716
:1020700007D55FEA0B7004D52868C760284600F0D2
:10208000B9F9B00706D52868C068800702D028468D
:1020900000F0B2F9700607D55FEACA6004D5296876
:1020A000102044F480640861B00607D55FEA0A7026
:1020B00004D528680761284600F01AFAF00606D50C
:1020C00028680069800702D0284600F012FAB003A1
:1020D00008D55FEAC96005D5296810204860284600
:1020E00000F008FAF00307D55FEA097004D5286804
:1020F0004760284600F005FA300446D55FEA49708B
:1021000040D5F00504D55FEAC87001D044F0010461
:10211000B00504D55FEA887001D544F0020470056B
:1021200004D55FEA487001D544F00404300529D590
:1021300018F0700F26D008F07000402815D006DC8B
:10214000102809D020280AD0302816D10AE05028BB
:102150000ED0602811D10EE044F008040DE044F0E8
:1021600010040AE044F0200407E044F0400404E0D6
:1021700044F0800401E044F480742868816921F00F
:1021800070018161296804204860002C05D0686ACC
:10219000204368622846FFF789FEBDE8F09F70B5CE
:1021A000040003D094F8200010B104E0012070BDB9
:1021B000204600F081F82068016841F001010160CB
:1021C00000F026FC0546052604E000F021FC401B3B
:1021D0000A2811D820684068C007F6D02068016836
:1021E00021F00201016000F013FC05460BE000F055
:1021F0000FFC401B0A2806D9606A40F40030606278
:1022000084F82060D2E7206840688007EFD4207E01
:102210000128206801683DD021F080010160607EC6
:1022200001282068016838D021F040010160A07EBB
:1022300001282068016833D021F020010160E07E90
:102240000128206801682ED041F010010160207F34
:1022500001282068016829D021F008010160607F11
:1022600001282068016824D021F004010160D4E92C
:1022700002010843D4E90412114308436168491E6E
:1022800008432168C86100206062012084F82000B2
:10229000002070BD41F08001C0E741F04001C5E77A
:1022A00041F02001CAE721F01001CFE741F0080119
:1022B000D4E741F00401D9E7F0B587B00446142112
:1022C0006846FEF70DFF464B4648DFF810E11968F7
:1022D000D4F800C0434A0325022609271030002401
:1022E000491CF44532D11960012907D1016841F038
:1022F00000710160006800F000700590106840F007
:10230000080010601068CDE9005600F00800CDE923
:10231000047069463448CDE9024500F073FA0022A2
:102320000521132000F082FD132000F071FD002232
:102330000521142000F07AFD142000F069FD002230
:102340000521152000F072FD152042E0DFF89CE029
:10235000F44540D1D0F800C04CF0806CC0F800C00B
:10236000D0F800C001290CF0806CCDF814C01960C1
:1023700007D1016841F000710160006800F0007051
:102380000590106840F002001060106802AB00F089
:10239000020005906020CDE9000683E8B0006946A0
:1023A000134800F02FFA002205213F2000F03EFDE7
:1023B0003F2000F02DFD00220621402000F036FDD8
:1023C000402000F025FD00220521412000F02EFDD7
:1023D000412000F01DFD07B0F0BD0000006400408A
:1023E0001800002030380240000C02400068004015
:1023F000000402407047000030B58DB002AB04AA63
:102400000021FFF754FD0498374CA0F20120062864
:1024100032D8C0B2354B00EB8002207003EB420192
:1024200033F812500D81BDF808506DBA23F81250E0
:10243000BDF80A2052BA4A80BDF80C2052BA8A80F0
:102440009DF80E208A716178A1B14FF480514A4203
:1024500004281DD005282ED0062817D103F13C00F2
:102460009B8FB0F90800181AA062884236DD6069B7
:10247000401E37E0012060701C481C2204A97830FF
:10248000FEF7D2FDDDE90201C4E916010DB030BD51
:10249000164B03F128001B8DB0F90800181A2062B2
:1024A000884202DDE068401E03E09042EEDAE06818
:1024B000401CE060EAE70D4B03F132005B8EB0F99F
:1024C0000800181A6062884202DD2069401E03E09D
:1024D0009042DBDA2069401C2061D7E79042D5DAD0
:1024E0006069401C6061D1E7940000202C3200201C
:1024F0007047704770477047704770477047704724
:102500007047704710B5040002D0607910B106E042
:10251000012010BD00202071204600F005F80120A8
:102520006071002010BD000008B5006806498842AF
:1025300008D10648016841F480510160006800F448
:102540008050009008BD000000300240303802404A
:102550002DE9F84304464FF00009CDF80090634898
:102560004FF41651A56D0068B0FBF1F72E6894F892
:102570005C10082000FA01F131420FD021680A688E
:1025800052070BD50A6822F004020A6094F85C1026
:102590008840A860606D40F00100606594F85C10B0
:1025A0004FF0010808FA01F0304208D0216849696B
:1025B000090604D5A860606D40F00200606594F8DB
:1025C0005C1004208840304208D0216809688907DF
:1025D00004D5A860606D40F00400606594F85C105C
:1025E00010208840304218D021680968090714D5A6
:1025F000A86020680168490304D50068000308D575
:10260000A16C07E00168C90503D4016821F0080145
:102610000160216C09B12046884794F85C102020A5
:102620008840304231D021680968C9062DD5A8609C
:1026300094F8350005282068016806D0490347D57D
:10264000006800031DD4616C1CE021F016010160DC
:102650002068416921F080014161206C08B9A06CBB
:1026600020B12068016821F00801016094F85C1035
:102670003F208840A86084F8358084F83490216D2C
:102680001FE0E16B09B120468847606D00282BD020
:10269000606DC00714D0052084F8350020680168FB
:1026A00021F0010101600098401C0090B84203D85D
:1026B00020680068C007F6D184F8358084F834902B
:1026C000E16C002910D001B02046BDE8F043084776
:1026D0000168C905D5D4016821F01001016084F8B2
:1026E000358084F83490CCE7BDE8F883D802002028
:1026F0002DE9F041044600F08BF906465CB102205A
:1027000084F83500002584F834502068016821F0F1
:10271000010101600DE00120BDE8F08100F078F9D1
:10272000801B052805D920206065032084F835002A
:10273000F2E720680068C007F0D1226811682048DD
:102740000140D4E901031843D4E903363343184365
:1027500063691843A3691843E3691843236A18435C
:102760000843616A042903D1D4E90B1319430843D0
:10277000106020684069666A20F0070130460E4309
:10278000012704280CD1A06A0643E06A40B1204624
:10279000FFF714F920B14020606584F83570BAE77E
:1027A000206846612046FFF7F5F894F85C203F2149
:1027B00091408160656584F835700020ACE70000C9
:1027C0003F8010F070B5044600F022F90546601C09
:1027D00002D004480078044400F01AF9401BA042DB
:1027E000FAD370BDCC02002070470000044910B538
:1027F0000A68024202D00860FFF7F6FF10BD000031
:10280000143C01402DE9F84FDFF8BCA1002201255E
:1028100003264FF00F090AF1040BAAF1040E00BFC2
:102820000B6805FA02F42340A34270D10F7907F038
:102830000307012F01D0022F16D187684FEA420803
:1028400006FA08FC27EA0C07D1F80CC00CFA08FCC1
:102850004CEA070CC0F808C04768A7430C79C4F3DA
:10286000001494403C4344600C79E443A4070AD02C
:10287000C4684FEA420C06FA0CF7BC438F6807FAAB
:102880000CF72743C7600C7904F00304022C12D123
:10289000D40800EB840CDCF820405707FF0E09FA3F
:1028A00007F824EA0804D1F8108008FA07F848EA83
:1028B0000408CCF8208004684FEA420C06FA0CF7B2
:1028C000BC430F7907F0030707FA0CF727430760AB
:1028D0004C6814F4403F70D03C4C276847F4804764
:1028E0002760246822F0030704F480440094384CE5
:1028F00007EB040CDCF8084897074FEA177809FA49
:1029000008F7BC43334FB84202D1002724E054E01B
:10291000314FB84201D101271EE0304FB84201D1FA
:10292000022719E02E4FB84201D1032714E02D4FA2
:10293000B84201D104270FE02B4FB84201D105273F
:102940000AE02A4FB84201D1062705E0284FB842D5
:1029500001D1072700E0082707FA08F72743CCF83A
:102960000878DAF800405746D1F804C09C435FEA83
:10297000CC2C00D51C433C60DBF800405F46D1F80E
:1029800004C09C435FEA8C2C00D51C433C60DEF8FD
:1029900000407746D1F804C09C435FEA8C3C00D5E8
:1029A0001C433C60084F083F3C68D1F804C09C437E
:1029B0005FEACC3C00D51C433C60521C102AFFF45B
:1029C0002FAFBDE8F88F0000083C014044380240BA
:1029D00000300140000002400004024000080240B4
:1029E000000C024000100240001402400018024097
:1029F000001C0240426921EA02030A4043EA024104
:102A0000816170470AB1816170470904FBE70000EA
:102A10000148806870470000CC02002070B50400B7
:102A200025D094F83D00002520B984F83C5020467C
:102A300000F0B8F8242084F83D002068016821F0F7
:102A4000010101602068016841F4004101602068D3
:102A5000016821F40041016001F094F84D4A616879
:102A6000914201D84C4900E04C49884201D20120F2
:102A700070BD4B492368B0FBF1F15E6826F03F065C
:102A80000E435E606368934206D94FF496735943D0
:102A90004FF47A73B1FBF3F12368491C1E6A26F0E8
:102AA0003F06314319626168914210D84900401EC7
:102AB000B0FBF1F2521CC2F30B02042A01D2042033
:102AC00022E0B0FBF1F0401CC0F30B001CE0A26858
:102AD000F2B301EBC10303EB0116431EB3FBF6F3A4
:102AE0005B1C43F480431B0549D092B301EBC10248
:102AF00002EB0111401EB0FBF1F0401CC0F30B00D3
:102B000040F4804040F400402168CA694CF6FF73ED
:102B10009A431043C861D4E9071001432068026852
:102B200022F0C00211430160D4E90301014320688F
:102B3000826848F2FF339A4311438160D4E905016A
:102B400008432168CA6822F0FF021043C86001E010
:102B50000EE016E02068016841F001010160256483
:102B6000202084F83D00256384F83E50002070BD8D
:102B700001EB4106431EB3FBF6F35B1CB3E70120F8
:102B8000C2E701EB4101401EB0FBF1F0401CC0F375
:102B90000B00B7E7A086010080841E0000093D00FD
:102BA00040420F002DE9F04387B0074614216846E4
:102BB000FEF796FA484C474B3A68002646481221E1
:102BC000032510344FF001084FF004099A4218D140
:102BD000026842F002020260006800F00200059004
:102BE00028028DE80301CDE9035969463B48FFF708
:102BF00009FE206840F400102060206800F40010F6
:102C000065E0374B9A4234D1026842F020020260FC
:102C10000068CDE9005100F02000CDE90490CDE935
:102C2000028569462F48FFF7EDFD206840F48000DB
:102C3000206020682D4C00F4800005902A48206018
:102C40004FF0606060604020C4E902060001C4E902
:102C50000406C001A661C4E9076020466662FFF76A
:102C600047FD08B1FEF7B3FF7C63A76307B0BDE87B
:102C7000F0831F4B9A42F9D1026842F004020260CD
:102C8000026802F004020592026842F0010202604A
:102C900000680E4600F00100059058158DE84101CE
:102CA000CDE9035969461348FFF7ACFD4FF4807036
:102CB0008DE84101CDE9035969460F48FFF7A2FDB0
:102CC000206840F400002060206800F400000590B7
:102CD000CCE70000005400403038024000040240BD
:102CE0000058004000140240B86002409C0F0020D1
:102CF000005C004000080240000002400248816879
:102D00000278114481607047CC0200200B4810B556
:102D1000016841F400710160016841F48061016063
:102D2000016841F480710160032000F09FF80F20DA
:102D300000F006F800F050F8002010BD003C024002
:102D400030B505461F4887B00024016841F4807102
:102D50000160006806A900F48070009001A800F0EE
:102D6000EBFE0498A8B100F00DFF40001649174A89
:102D7000B0FBF1F11648491E026040F2E732C0E9AB
:102D80000324C0E90114846101F028FC040003D08D
:102D900015E000F0F7FEE9E70D4801F0A1FC0400A2
:102DA0000DD12D2000F034F8102D07D20022294635
:102DB0002D2000F03BF80748056000E0012407B033
:102DC000204630BD4038024040420F000020004005
:102DD000E4310020D00200200C4882B0016841F4A8
:102DE00080410160006800F4804000900748001FA7
:102DF000016841F0805101600068002200F08050BD
:102E000000900F21901E02B000F010B8443802402C
:102E1000002809DB00F01F020121914040098000D9
:102E200000F1E020C0F8001170470000F0B40E4B34
:102E30001B680C46C3F30223C3F10705042D00D918
:102E40000425191D072901D2002300E0DB1E0126FD
:102E500006FA05F1491E214099409E40761E164013
:102E60003143F0BC07F06ABA0CED00E0064900F00F
:102E7000070208684FF6FF03184040EA0220034AA1
:102E800010430860704700000CED00E00000FA05F8
:102E900070470068416200207047F0B50368586AC7
:102EA00039B19C6A4FF4827600EB144400204D1E29
:102EB0000AE040EA024098620FE006EB8007DF5923
:102EC000401C04EB1744C0B2A842F6D344EA0240C7
:102ED0004FF4807202EB810158500020F0BDD0F811
:102EE000E00406F078B901EBC10200EB8202D0F8F1
:102EF000E004126A06F0CDB801EBC10200EB8202D9
:102F0000D0F8E004D2F8602206F01EB9D0F8E00450
:102F100006F063B90A0601F00F0101EBC10100EBF5
:102F2000810101D5143101E001F51571006807F048
:102F30003FB870B504460B0601F00F0000EBC0016E
:102F400004EB81014FF001024FF0000502D54A75F4
:102F5000143103E081F8555201F51571087094F8A9
:102F60009404012808D084F89424206806F03AFDDF
:102F700084F89454002070BD022070BD70B50446E2
:102F800001F00F002279904201D9012070BD0B069B
:102F900001F00F0101EBC10104EB81014FF00102CF
:102FA0004FF0000502D54A75143103E081F85552FF
:102FB00001F515718D70087094F89404012808D0FB
:102FC00084F89424206806F07FFE84F8945400204E
:102FD00070BD022070BD01F00F0101EBC10100EBDB
:102FE0008100D0F8680270472DE9F04104460F06D1
:102FF00001F00F0000EBC00104EB81014FF001066E
:103000004FF0000502D54E75143103E081F855529A
:1030100001F51571C2F30A0208708A600B714A78D3
:1030200002B14883022B00D14D7194F89404012819
:1030300009D084F89464206806F026FC284684F8B9
:103040009454BDE8F0810220FBE710B501F00F04B5
:1030500004EBC40100EB8101C1E998230023C1F80E
:10306000683281F8553281F85442837901F515713F
:10307000012B00D1CA618279006806F07DFE002034
:1030800010BD70B504460D4601F00F00217988424D
:1030900001D9012070BD29064FF000064FF0010252
:1030A00006D500EBC00104EB81014A75143107E03D
:1030B00005EBC50104EB810181F8556201F515713D
:1030C0008A70087094F89404012807D084F8942436
:1030D000206806F025FE280702D007E0022070BD18
:1030E000A17904F29C42206806F0C2FD84F8946441
:1030F000002070BD10B501F00F0404EBC40100EB1B
:103100008101C1E9082300238B6201234B7501F87B
:10311000144F8379012B00D1CA618279006806F0CF
:103120002BFE002010BD00002DE9FC5F0568044661
:10313000284606F0D9FF00287DD1206807F000F866
:10314000002878D0D5F80808C0F30D20C4F8D404BE
:10315000206806F0F5FF800704D52068416901F07A
:1031600002014161206806F0EBFFC10604F29C40B9
:10317000009034D52068816921F0100181612F6AA7
:1031800007F00F0000EBC00004EB8006C7F34340DC
:1031900006F51576022802D0062811D01AE047F667
:1031A000F070074216D0C7F30A1217462846F16896
:1031B00006F0CAFFF0683844F0607069384408E0EF
:1031C00008222846009906F0BFFF7069C7F30A116C
:1031D000084470612068816941F0100181612068B4
:1031E00006F0AEFF00034FF0080B4FF0000A4FF05F
:1031F00001097CD50026206806F081FF074674E0AF
:10320000F80770D0F1B2206806F092FF8046C00740
:1032100007D005EB4611C1F8089B3146204604F063
:1032200045FA5FEA087024D505EB4611C1F808BBE2
:103230002068016C00E023E200EB46100191D0F819
:10324000082BFB4B994205D9110403D54FF40041DB
:10325000C0F8081B204600F0F6FAF54901988842AC
:1032600007D9A079012804D120680121009A06F02D
:10327000FFFC5FEAC86004D505EB46111020C1F8D9
:10328000080B5FEA88701DD56869000605D5D5F87A
:10329000040840F48061C5F8041806EBC60004EB8E
:1032A000800090F8571200F51570012905D180F8BB
:1032B00003A0F1B2204600F0E9F905EB4611022027
:1032C000C1F8080B5FEA886004D505EB46102021A1
:1032D000C0F8081B5FEA884005D505EB46104FF49F
:1032E0000051C0F8081B7F08761C002F88D1206889
:1032F00006F026FF40036ED5206806F0F9FE07466B
:10330000002666E0F80762D0F1B2206806F0FEFE03
:103310008046C00723D006F00F01D5F8342809FAFB
:1033200001F18A43C5F8342805EB4611C1F8089924
:10333000A07901280FD106EBC60004EB8000D0E98C
:1033400007211144016236B9606A20B92068012161
:10335000009A06F08DFCF1B22046FFF7C4FD5FEA4B
:10336000087003D505EB4611C1F808B95FEAC860DB
:1033700004D505EB46111020C1F808095FEA486042
:1033800004D505EB46104021C0F808195FEA8870A3
:1033900016D53146284606F07CFE06EBC60004EB47
:1033A0008000C17D1430012905D180F803A0F1B25D
:1033B000204600F067F905EB46110220C1F8080924
:1033C0005FEA086003D53146204604F0D5F97F084E
:1033D000761C002F96D1206806F0B2FE002811DA84
:1033E000D5F8040820F00101C5F8041894F8CC04BD
:1033F00001282BD0204600F00BFA2068416901F02B
:1034000000414161206806F09BFE00050BD5D5F810
:103410000808C00702D0204600F03EFA2068416943
:1034200001F400614161206806F08AFEC00467D59E
:10343000D5F8040820F00100C5F804081021206820
:1034400006F027FE00214FF67F3220E084F8CCA45E
:1034500000212046FFF71CFDCFE700BF05EB411020
:10346000C0F80829D0F8003923F40013C0F8003957
:10347000C0F8082BD0F8003B23F40013C0F8003B41
:10348000D0F8003B43F00063C0F8003B491C2079B2
:103490008842E3D8D5F81C0840F00111C5F81C1883
:1034A000E07B002828460DD0D0F8840840F00B01BE
:1034B000C5F88418D5F8440840F00B012846C5F833
:1034C00044180DE0D0F8140842F22B010843C5F867
:1034D0001408D5F8100840F00B012846C5F810185C
:1034E000D0F8000820F4FE61C5F80018A179206822
:1034F000009A06F0BDFB2068416901F480514161EA
:10350000206806F01DFE800415D5206806F0FCF941
:10351000206806F0DCFDE07100F02EFB0146E27948
:10352000206806F06FFE204600F05CF920684169D3
:1035300001F400514161206806F002FE000707D542
:10354000204600F069F92068416901F008014161F5
:10355000206806F0F5FD000616D5A86920F0800168
:10356000A96101260DE000BF06EBC60004EB800058
:1035700090F85702012803D1F1B22046FFF7CAFCA8
:10358000761C2079B042EFD8206806F0D9FDC00241
:103590001FD501264F4614E005EB4610D0F8001960
:1035A00006EBC60004EB8002107E012808D100293A
:1035B00006DAF0B240F08001D7752046FFF7AAFC8A
:1035C000761C2079B042E7D82068416901F4801167
:1035D0004161206806F0B4FD800234D501204A46DE
:1035E00029E000BF05EB4011D1F8001B00EBC00340
:1035F00004EB830393F85862012E1BD1002919DADA
:1036000094F8D46401F4803106F00106B14211D17E
:1036100083F85722A96941F08003AB616969090603
:1036200008D4D5F8040840F40070C5F8040805E093
:103630000A30544F401C21798142D3D82068416917
:1036400001F400114161206806F07AFD400007D5C1
:103650002046FFF744FC2068416901F08041416148
:10366000206806F06DFD40070AD5206845686807A8
:1036700002D52046FFF74AFC206841682943416093
:10368000BDE8FC9FD0F8E00405F0F9BDD0F8E004F7
:1036900005F009BEF8B5040005D094F89504266835
:1036A000002510B106E00120F8BD84F894542046AE
:1036B00000F056F8032084F89504B6F1A04F00D12D
:1036C000A571206806F0CEFA207C8DF8000094E801
:1036D0000F0006F027F90226B8BB0021206806F08B
:1036E00052FD90BB002001270DE000BF00EBC001A0
:1036F00004EB81014F750875C8850D76CD610D62AB
:10370000401CC0B24D6221798142EFD8002011E007
:1037100000EBC00104EB810181F8555281F854029D
:1037200081F85852C1F85C52C1F86052401CC0B2D6
:10373000C1F8645221798142EAD8207C8DF80000DA
:1037400094E80F0006F0D0F910B184F89564AAE768
:10375000657484F89574206806F0B8F90020F8BD07
:1037600010B586B0044614216846FDF7B9FC206800
:10377000B0F1A04F2FD119480021026842F0010298
:103780000260006800F0010005904FF4E0500090E6
:103790000220CDE90101032003900A20049069462C
:1037A0000F48FFF72FF80D48001D016841F0800118
:1037B00001600A481430016841F4804101600068EA
:1037C000002200F48040059005214320FFF72EFBE6
:1037D0004320FFF71DFB06B010BD0000303802404B
:1037E0000000024070B50446C079012570B102287E
:1037F00001D0FEF7ECF92946D4F8E00405F0C1FD4C
:10380000D4F8E004BDE8704005F076BD0025F2E78D
:10381000D0F8E00405F09EBDD0F8E00405F0A4BDAA
:1038200010B5044690F8940401280AD0012084F8C9
:1038300094046174206806F0D4FC002084F8940499
:1038400010BD022010BDD0F8E02400F29C411046CB
:1038500005F0A3BD10B50446006894F8941401293E
:1038600009D0012184F89414C168490609D5617B07
:10387000012902D005E0022010BD816B41F48031A6
:103880008163206806F0E3FB206806F011F9002050
:1038900084F8940410BD000010B50446D0F8E0048C
:1038A00005F0BDFD2068D0F8001E41F00101C0F810
:1038B000001EE07A002804D00248016841F00601A9
:1038C000016010BD10ED00E02DE9F84305460068E9
:1038D0004FF00109C1074FF0000601D1400727D57D
:1038E000DFF80C81C8F86860FFF792F80746414C92
:1038F00005E000BFFFF78CF8C01B022857D82068EE
:103900000001F7D468688101287A41EA00703949DA
:1039100084310860C8F86890FFF77AF8074604E039
:10392000FFF776F8C01B022841D820680001F7D5C0
:103930002878800752D52F484030016841F08051E7
:10394000016000682C4C00F080500090206840F42A
:1039500080702060FFF75CF8074604E0FFF758F836
:10396000C01B022823D82068C005F7D5214C70342D
:10397000206810F4407020D0A98901F44071814280
:103980001BD020681D4920F44070C1F800900E60E3
:1039900020602068C00710D0FFF73AF8064641F2D1
:1039A000883707E0FFF734F8801BB84202D90320BC
:1039B000BDE8F88320688007F4D5E9680D48C1F3B5
:1039C00001220830032A0BD0016821F4F8110160AC
:1039D0002068A989C1F30B01084320600020E7E7B4
:1039E0000268074B22F4F81219400A430260EFE71D
:1039F000000047420038024000700040400E47423D
:103A0000FFFCFF0F2DE9F0470E46050065D0DFF8FB
:103A10001481D8F80000F7B200F00700B04207D2D6
:103A200088F80070D8F8000000F00700B04254D1C8
:103A300028683D4C810712D5400703D5206840F423
:103A4000E05020602878000703D5206840F46040EB
:103A500020602068A96820F0F000084320602878E2
:103A6000C0072DD0304968680839012812D00228D3
:103A700013D0032811D00968890700292DDA21689D
:103A800021F0030101432160FEF7C2FF814641F2AC
:103A9000883A0EE009688903EFE709688901ECE7D5
:103AA000FEF7B6FFA0EB0901514502D90320BDE89E
:103AB000F0872068696800F00C00B0EB810FEFD14F
:103AC000D8F80010404601F00701B14207D907704D
:103AD000006800F00700B04201D00120E7E7287835
:103AE000400705D52068E96820F4E05008432060CD
:103AF0002878000706D52068296920F4604040EA4C
:103B0000C100206000F05EF82168084AC1F303118B
:103B1000515CC8400649086006480068FFF710F984
:103B20000020C4E7003C0240083802400CCF0008E7
:103B3000D8020020D00200200F2202600C4A136835
:103B400003F003034360136803F0F003836013681A
:103B500003F4E053C36012684FF4E05303EAD20267
:103B600002610448006800F0070008607047000028
:103B700008380240003C02400148006870470000DD
:103B8000D80200200448054900680968044AC1F3C6
:103B90008221515CC8407047D8020020083802409A
:103BA0001CCF00080448054900680968044AC1F3AD
:103BB0004231515CC8407047D802002008380240AA
:103BC0001CCF0008154810B5006810F00C0214480E
:103BD00013D01449042A0FD0082A0ED10F4C241FE9
:103BE0002268236802F03F025B0207D52068C0F319
:103BF0008810A0FB010106E0084610BD2168C1F352
:103C00008811A1FB00010023FDF752F92168C1F3DF
:103C10000141491C4900B0FBF1F010BD08380240D9
:103C20000024F400001BB7002DE9F84F04006ED00B
:103C30002078DFF84C93C007A9F104054AD009F1B8
:103C400004000168C1F38101012908D00068C0F3B4
:103C5000810002280AD1D9F80000400206D5286860
:103C6000800337D560680028E1D033E06068B0F5A4
:103C7000803F10D0B0F5A02F286810D020F48030FD
:103C80002860286820F4802028606068A8B1FEF7CA
:103C9000BFFE06460DE0286840F48030F4E740F4AB
:103CA00080202860F7E700BFFEF7B2FE801B642883
:103CB00073D828688003F7D50CE0FEF7A9FE064606
:103CC00005E000BFFEF7A4FE801B6428F0D828683A
:103CD0008003F7D42078DFF8AC8280074FF0000A29
:103CE0003ED5A748001D016811F00C0F08D00068F0
:103CF000C0F3810002280BD1D9F80000400207D49C
:103D00002868800716D5E068012800D112E033E169
:103D1000E068B8B10120C8F80000FEF779FE064659
:103D200005E000BFFEF774FE801B0228C0D828689B
:103D30008007F7D52868216920F0F80040EAC10023
:103D400028600DE0C8F800A0FEF762FE064604E019
:103D5000FEF75EFE801B02281FD828688007F7D474
:103D60002078000722D5864F87486169703771B186
:103D700001210160FEF74CFE064604E0FEF748FE16
:103D8000801B022809D838688007F7D50EE0C0F8F4
:103D900000A0FEF73DFE064605E082E0FEF738FE95
:103DA000801B02287DD838688007F7D42078400728
:103DB00068D5DFF8CCB100270BF13C0BDBF8000035
:103DC000C0000BD4DBF8001041F08051CBF800109C
:103DD000DBF80000012700F0805000906B4E306847
:103DE000C00510D4306840F480703060FEF710FEDB
:103DF000009005E0FEF70CFE0099401A022850D80A
:103E00003068C005F6D55E4EA0686C3601280FD02C
:103E10000528306810D020F001003060306820F0B4
:103E200004003060A068B8B1FEF7F2FD00900FE02A
:103E3000306840F00100F4E740F004003060F7E73C
:103E4000FEF7E6FD0099411A41F28830814266D8BA
:103E500030688007F4D50EE0FEF7DAFD009007E049
:103E6000FEF7D6FD0099411A41F28830814256D8BA
:103E700030688007F4D42FB1DBF8001021F08051B6
:103E8000CBF80010A069C8B33D49091D0968C1F30A
:103E9000810102294AD00228504607D0C8F86000A4
:103EA00000E03CE0FEF7B4FD04463BE04746C8F8BE
:103EB0006000FEF7ADFD064605E000BFFEF7A8FD79
:103EC000801B02282BD828688001F7D4D4E9070189
:103ED0000843A16A2E4A490802EB0141626A41EA9D
:103EE0008211084394F82C1040EA0161C9F80010CF
:103EF00001203866FEF78CFD044606E03EE000BF78
:103F0000FEF786FD001B022809D828688001F7D536
:103F100034E000BFFEF77CFD001B022802D903201D
:103F2000BDE8F88F28688001F4D427E00128F7D095
:103F3000D9F80000E26900F4800191421CD1226AA4
:103F400000F03F01914217D147F6C071626A01400B
:103F5000B1EB821F10D1A26A4FF0FF3300F4403161
:103F600003EB5202B1EB024F06D194F82C1000F093
:103F70007060B0EB016F01D00120D1E70020CFE7E6
:103F80000438024000004742800E47420070004063
:103F90000000FFFF70B5040003D06079002510B168
:103FA00005E0012070BD2571204600F00DF80220CB
:103FB00060712068016841F00401016001206071B6
:103FC000A560002070BD000008B500680649884261
:103FD00008D10648016841F040010160006800F026
:103FE0004000009008BD0000000806503438024030
:103FF00010B5040002D0607F10B106E0012010BDB2
:1040000000202077204600F041F8022060772068E9
:10401000C168C943C90632D5CA214162216853200B
:104020004862204603F068FF20BB20688168164A7A
:10403000114081602168886862681043D4E90423D4
:104040001A43104388602168E068086120680169AC
:10405000228941EA02410161204603F071FF48B91B
:1040600021680A6C22F480220A6421680A6CA36920
:104070001A430A642268FF21516208B110BD002072
:104080000121617710BD0000BFFF8FFF1FB5002128
:1040900000910191029103910068084988420CD176
:1040A00002200090064803906846FFF70DFC08B117
:1040B000FDF78DFD0349012008601FBD0028004069
:1040C00000031E003C0E474270B504460B482168B1
:1040D000C860FEF79DFC05464FF47A7607E000BF06
:1040E000FEF796FC401BB04201D9032070BD20684A
:1040F000C0688006F4D5002070BD00005F7F01001D
:1041000070B5040009D0606A002540B12561656181
:10411000A56294F8510040B10CE0012070BD6068C8
:10412000B0F5827FF4D0E561F2E784F85050204684
:1041300000F044F8022084F851002068016821F062
:1041400040010160A088218900F4827001F40441DB
:104150000843A18901F400610843217C01F00201B8
:104160000843217D01F001010843218B01F4007116
:104170000843217F01F03801084394F8201001F032
:1041800080010843218D01F4005108432168086033
:10419000A069042101EA104094F8241001F01001F4
:1041A0000843216848602068C16921F40061C16149
:1041B0006565012084F85100002070BD2DE9F047AD
:1041C00086B0054614216846FCF78AFFDFF818C15F
:1041D000296846480226012703220523DFF81081BB
:1041E0000024614560D141491431D1F800C04CF43C
:1041F000805CC1F800C0096801F480510591016834
:1042000041F002010160016801F0020105910168BD
:1042100041F0010101600068914600F00100059045
:1042200018209A468DE8C10669464046FEF7EAFA2C
:1042300080208DE8C10669462E48FEF7E3FA2F4E2E
:104240002D484FF0C0673060C6E901744FF48068B4
:10425000C6E9034874617812B461C6E90740304684
:104260007462FEF745FA08B1FDF7B1FCEE64B56380
:10427000224E214860361830E6E802074020A6E8C2
:104280001101C00246F81449B461C6E907401B4851
:1042900074626030FEF72CFA08B1FDF798FCAE644A
:1042A000B56306B0BDE8F087154CA142F9D10F49BE
:1042B00010310C6844F480440C60096801F48041BA
:1042C0000591016841F0020101600068694600F053
:1042D000020005904FF460408DE8C1004046CDE9F2
:1042E0000323FEF78FFADCE700300140303802404C
:1042F000000402400000024040640240DC10002044
:10430000003800402DE9FF4F81B01D46934604461A
:104310004FF001090E9EFEF77BFB074694F8510013
:104320006168012806D0B1F5827F3CD1A168C9BB84
:10433000042838D10298002871D0BBF1000FFBD0BF
:10434000002DF9D094F8500001282CD04FF0010A2C
:1043500084F850A094F85100042802D0052084F875
:1043600051004FF00008C4F85480C4F838B0E58715
:10437000A58702992163E586A586C4F84080C4F824
:10438000448020680168490603D4016841F0400177
:104390000160E068B0F5006F606808D0F0B3012DEF
:1043A00049D081E0FFE7022005B0BDE8F08F08B1F9
:1043B000012D39D1206B21680088C860206B801CDA
:1043C0002063E08E401EE0862EE020688168890729
:1043D0000FD5E18E69B1B9F1010F0AD1216B0988BE
:1043E000C160206B801C2063E08E401EE0864FF091
:1043F000000920688168C9070CD0E18F51B1C068FD
:10440000A16B0880A06B801CA063E08F401EE0873A
:104410004FF00109FEF7FCFAC01B01E00BE067E07A
:10442000B04201D3701C50D1E08E0028CDD1E08F76
:104430000028CAD13EE0206B216800780873206B09
:10444000401C2063E08E401EE0862DE020688168DD
:1044500089070FD5E18E69B1B9F1010F0AD1216B3E
:1044600009780173206B401C2063E08E401EE086BB
:104470004FF0000920688168C9070CD0E18F51B165
:10448000C068A16B0870A06B401CA063E08F401E49
:10449000E0874FF00109FEF7BBFAC01BB04202D320
:1044A000701C01D011E086B1E08E0028CED1E08FE3
:1044B0000028CBD13A463146204603F057FD50B193
:1044C0002020606584F8508012E084F851A084F8C0
:1044D0005080032068E7A06818B92068C168806828
:1044E000009084F851A084F85080606D0028F1D0CD
:1044F000012059E77047704710B590F83C20012A19
:1045000022D0012280F83C20CA688C6822F44072D4
:1045100022434C6822F4806222430C6822F4006239
:1045200022430C6922F4805222434C6922F4005247
:104530002243C969002322F480420A4301684A6485
:1045400080F83C30002010BD022010BD70B590F8FE
:104550003C20012A32D0012480F83C40022280F81D
:104560003D2003685A689D6822F070060A6832434D
:104570005A60134B02689A4214D0B2F1804F11D0A6
:10458000104B9A420ED0104B9A420BD00F4B9A42CE
:1045900008D00F4B9A4205D00E4B9A4202D00E4BD8
:1045A0009A4204D1496825F080031943916080F84C
:1045B0003D40002180F83C10084670BD022070BDCF
:1045C000000001400004004000080040000C0040D2
:1045D00000040140004001400018004010B50400F4
:1045E00003D094F83D0010B107E0012010BD002079
:1045F00084F83C00204600F01FF8022084F83D00BB
:10460000211D206803F0C0FD012084F8460084F8D5
:104610003E0084F83F0084F8400084F8410084F8AC
:10462000420084F8430084F8440084F8450084F88C
:104630003D00002010BD000008B523490268234852
:104640008A4207D1016841F001010160006800F071
:1046500001000BE01D491E4B091F9A4208D1086852
:1046600040F002000860086800F00200009008BDF9
:10467000184B9A4207D1086840F0080008600868A3
:1046800000F00800F2E714498A4211D1016841F0B4
:10469000020101600068002200F0020000900F217A
:1046A0002D20FEF7C3FBBDE808402D20FEF7B0BB70
:1046B0000A498A42DBD1016841F400310160006897
:1046C00000F40030D2E7000000000140443802400E
:1046D00000040040000C0040000401400044014080
:1046E00090F83D10012901D001207047022180F887
:1046F0003D100168CA6842F00102CA6000681149B1
:10470000884214D0B0F1804F11D00F4988420ED0AA
:104710000E4988420BD00E49884208D00D49884284
:1047200005D00D49884202D00C49884204D18168E5
:1047300001F00701062903D0016841F00101016081
:1047400000207047000001400004004000080040C5
:10475000000C0040000401400040014000180040EF
:1047600070B5044690F83C000025012817D00126BA
:1047700084F83C60022084F83D002068826822F0C2
:10478000770222F47F4282600868502838D00DDC1E
:1047900020284FD005DC90B3102811D14AE0022028
:1047A00070BD302846D040280AD13BE060282FD089
:1047B00070280DD0B0F5805F03D0B0F5005F12D047
:1047C000012584F83D60002084F83C00284670BD37
:1047D000CB68D1E90121206803F04FFD2068816892
:1047E00041F0770109E0CB68D1E90121206803F0AD
:1047F00044FD2068816841F480418160E1E719E06F
:10480000CA684968206803F022FE5021206806E04B
:10481000CA684968206803F02BFE6021206803F015
:1048200036FDCEE7CA684968206803F010FE4021D3
:104830002068F4E7226801461046F0E770472DE94A
:10484000F04104460068C66805694FF00007A907F3
:1048500013D5B10711D5F91E016101202077206819
:1048600080698007204602D0FFF7E8FF04E000F0EF
:1048700019F9204600F0BEF92777680716D57007AA
:1048800014D521686FF004000861022020772068A9
:10489000806910F4407F204602D0FFF7CFFF04E08C
:1048A00000F000F9204600F0A5F92777280715D574
:1048B000300713D521686FF00800086104202077C5
:1048C0002068C0698007204602D0FFF7B7FF04E0E8
:1048D00000F0E8F8204600F08DF92777E80616D5B5
:1048E000F00614D521686FF01000086108202077C9
:1048F0002068C06910F4407F204602D0FFF79EFF79
:1049000004E000F0CFF8204600F074F92777E807BC
:1049100008D0F00706D021686FF00100086120463A
:1049200000F0CEF9280608D5300606D521686FF0CC
:10493000800008612046FFF7DDFD680608D5700697
:1049400006D521686FF040000861204600F0C2F9EA
:10495000A8060AD5B00608D521686FF020000861C6
:104960002046BDE8F041FFF7C6BDBDE8F08100007C
:104970002DE9F04186B0044614216846FCF7B0FBEF
:104980003D4A21683D4802240125914210D1016829
:1049900041F0100101600068694600F010000590C8
:1049A0004FF4D4408DE831003548CDE9034513E09C
:1049B000344ADFF8D480914213D1016841F00401F8
:1049C00001600068694600F00400059090158DE8CC
:1049D0003100039440460494FDF714FF06B0BDE88F
:1049E000F0812A4A032691420ED1016841F0080164
:1049F00001600068694600F00800059010148DE819
:104A0000710023480494E7E7224A4027914220D1CD
:104A1000016841F480710160016801F480710591C1
:104A2000016841F00401016000680097CDE901458B
:104A300000F00400CDE90460694603941648FDF7D0
:104A4000E1FE0097CDE90145CDE9034669464046C0
:104A5000C2E7124A9142C1D1016841F020010160D0
:104A600000680097CDE9014500F02000CDE9046021
:104A7000694603940A48AFE700000140303802401D
:104A800000100240000400400008024000080040FE
:104A9000000C02400004014000200240004401409C
:104AA00000140240704770B5044690F83C000026A0
:104AB0000D4601280FD0012084F83C006AB1042A79
:104AC0001DD0082A2FD00C2A3FD00126002084F8C0
:104AD0003C00304670BD022070BD206803F0E0FB52
:104AE0002068816941F0080181612068816921F0B5
:104AF00004018161206881692A69114311E02068FD
:104B000003F0FEFB2068816941F400618161206847
:104B1000816921F480618161206881692A6941EAA3
:104B200002218161D2E7206803F020FC2068C1697E
:104B300041F00801C1612068C16921F00401C1612F
:104B40002068C1692A69114311E0206803F042FC22
:104B50002068C16941F40061C1612068C16921F424
:104B60008061C1612068C1692A6941EA0221C1618D
:104B7000ACE710B5040003D094F83D0010B107E095
:104B8000012010BD002084F83C00204600F01EF8F3
:104B9000022084F83D00211D206803F0F5FA012071
:104BA00084F8460084F83E0084F83F0084F8400012
:104BB00084F8410084F8420084F8430084F84400FB
:104BC00084F8450084F83D00002010BD08B5006859
:104BD0000649884208D10648016841F00401016095
:104BE000006800F00400009008BD000000080040CC
:104BF000403802407047000010B50446022249B117
:104C000004290ED0082913D094F84100012816D0A9
:104C1000012010BD94F83E000128F9D184F83E200F
:104C20000FE094F83F000128F2D184F83F2008E01B
:104C300094F840000128EBD184F8402001E084F88A
:104C400041200122206803F00BFB16492068164A18
:104C5000884201D0904203D1436C43F40043436443
:104C60002068884213D0B0F1804F10D00F4988429D
:104C70000DD00F4988420AD00E49884207D0904291
:104C800005D00D49884202D00C49884204D1816880
:104C900001F00701062903D0016841F0010101601C
:104CA000002010BD0000014000040140000400404D
:104CB00000080040000C0040004001400018004087
:104CC00000680349884201D1FEF718B87047000018
:104CD00000200040704770B5040004D094F84100F3
:104CE000002510B106E0012070BD84F84050204638
:104CF00000F024F8242084F841002068C16821F4E1
:104D00000051C160204603F0EDFB2068016921F4E9
:104D1000904101612068416921F02A0141612068C8
:104D2000C16841F40051C1606564202084F84100ED
:104D300084F842006563002070BD00002DE9F04F4B
:104D400087B0044614216846FCF7CAF98648DFF8A4
:104D500014821438D4F800C0834A022103260723A2
:104D6000002507154FF0400B4FF0006AC44563D192
:104D7000D2F800C04CF0100CC2F800C0126802F06B
:104D800010020592026842F002020260026802F01C
:104D900002020592026842F0010202600068894640
:104DA00000F0010005908020CDE900090DF1080C0C
:104DB00098468CE8600169466C48FDF723FD781041
:104DC000CDE900090DF10809694689E860016848E4
:104DD000FDF718FD684E6748D046C6E90357756170
:104DE000B56186E80109B801C6E907503046756229
:104DF000FDF77EFC08B1FCF7EAFEA663B4635E4EE5
:104E00005C48603630383060C6E90185C6E9035732
:104E10007561B561F561356230467562FDF768FC14
:104E200008B1FCF7D4FEE663002205212520B46317
:104E3000FDF7FCFF25203DE0DFF840814FF400390D
:104E4000C4453CD1484A121FD2F800C04CF4802C13
:104E5000C2F800C0126802F480220592026842F093
:104E6000040202600068049300F0040005904FF40F
:104E700040608DE8630069464148FDF7C3FC3E4E43
:104E80004048C0363060C6E901A5C6E903577561E0
:104E9000B561C6E9075930467562FDF729FC08B1CE
:104EA000FCF795FEE663002204212720B463FDF79A
:104EB000BDFF2720FDF7ACFF07B0BDE8F08F324BF8
:104EC0009C45F9D1136843F020031360126802F087
:104ED00020020592026842F040020260006800F081
:104EE000400005904FF484408DE863000820049052
:104EF00069462648FDF786FC1E48254E90384FF03F
:104F000020683060C6E90185C6E903577561B5615F
:104F1000C6E9075930467562FDF7EAFB08B1FCF7B0
:104F200056FEE663B4631A4E124860361838C6E976
:104F300003577561B56186E801094FF48030C6E911
:104F4000075030467562FDF7D3FB08B1FCF73FFE12
:104F5000A663002205214720B463FDF767FF4720C1
:104F6000A8E700000010014044380240000402405D
:104F700000000240B86402402414002000480040B1
:104F8000000802402860024000140140001802405E
:104F9000441500202DE9F843044690F84100984656
:104FA00016460D46202802D00220BDE8F88385B1C0
:104FB0007EB100206064212084F84100FDF728FDC7
:104FC000A6848146E684A0682027B0F5805F02D0E1
:104FD00003E00120E9E7206910B12E4600250EE02C
:104FE00000260CE08021204603F002FBA8B9C6B1E0
:104FF00016F8010B21684860E08C401EE084E08CCC
:105000004B464FF00002CDF800800028EAD14FF067
:105010004001204603F0ECFA40B184F841700320CF
:10502000C3E735F8020BC0F30800E3E784F84170EA
:105030000020BAE770B5044600203C4D2074A27BE6
:10504000288861684243D4F8F400FBF7EDFFA17BA8
:10505000288841436068FCF743F8A07B10FB00F10F
:1050600028884143D4F81801FCF73AF8207BA17B4B
:1050700010FB01F128884143D4F80C01FCF730F80B
:1050800000202BE0D4F8F41001EB800292ED000A2E
:10509000B5EEC00AF1EE10FA1ED0227C01EB8201BF
:1050A00081ED000A227C616A8854A169227B01EBB0
:1050B0008001237C91ED000A6169095C12FB0311F8
:1050C0006FF0030202EB8101D4F80C21114481ED51
:1050D000000A217C491C2174401CC0B2A17B814282
:1050E000D0D8002010E0636AE2691B5C02EB830207
:1050F00092ED000A10FB0101D4F81821401C02EBCC
:105100008101C0B281ED000A217C8142EBD8C8B296
:1051100024F8780F14F86C0C608020816181218361
:1051200061832084618424F8301C70BDDE0100207E
:10513000FEE70000F0B58D4C0F462DED068B0546C1
:1051400087B01646D0ED040A94ED050A884830EE83
:10515000C00AB0EEC00A10EE101A814219DC95EDBB
:10516000050A94ED061A30EE410AB0EEC00A10EEC0
:10517000101A81420DDC95ED060A94ED071A30EE07
:10518000410AB0EEC00A10EE101A814201DC287804
:10519000F0B39FED789A80EE890AFBF7E9F8F0EE1C
:1051A000400AF0EE609AD5ED050A80EE890AFBF719
:1051B000DFF8D5ED060AF0EE401A80EE890AB0EE6F
:1051C00061AAFBF7D5F8D5ED040AF0EE40AA80EE0F
:1051D000890AFBF709F9F0EE400AB0EE608AD5EDD6
:1051E000050A80EE890AFBF7FFF8D5ED060AF0EE16
:1051F000408A80EE890AFBF7F7F829EEAA2A68EEC2
:10520000280AB0EE401AB0EE420A00EE810A00E031
:105210002BE084ED080A2AEE080A6AEE880A0020CC
:1052200084ED090A29EE810A00EEE80A84ED0A0AF3
:1052300029EEA80A20EE010A0AEEC80A84ED0B0A3C
:1052400029EE8A0A84ED0C0A28EE410A02EE680A69
:1052500084ED0D0A2AEE410A84ED0E0A2AEE2A0A8E
:10526000C4ED0F8A84ED100A287000204FEA0D016A
:1052700007EB800292ED000A05EB8002D2ED010AF5
:1052800001EB8002401C20EE200AC0B2032882ED10
:10529000000AEDD39DED000AD4ED085A9DED011AE8
:1052A00094ED094A20EE252ADDED020AD4ED0A1A12
:1052B000002004EE012A03A901EEA02A87ED002AAE
:1052C00094ED0B3AD4ED0C2A94ED0D2A60EE033ADE
:1052D00042EE813A42EE203AC7ED013AD4ED0E3A61
:1052E000D4ED0F4A94ED105A20EE230A04EE810A01
:1052F00005EE200A87ED020A06EB800292ED000A15
:1053000001EB8002401CC0B282ED000A0328F3D3F7
:105310009DED031ADDED040A9DED050A61EE255AA7
:1053200044EE205A41EE805A61EE031A21EE231A10
:1053300042EEA01A04EEA01AC6ED005A42EE001A80
:1053400005EE001AC6ED011A86ED021A95ED040A63
:1053500084ED050A95ED050A84ED060A95ED060A29
:1053600084ED070A07B0BDEC068BF0BDF400002009
:105370006F12833AE12E654210B504462DED048B81
:10538000D0F8EC00D0ED009A90ED019AD0ED028AB1
:1053900029EEA90A90ED038A09EE090A08EEA80A87
:1053A00008EE080A05F080FC5FF00000D4F8EC106D
:1053B00001EB8001401CD1ED000AC0B2042860EE70
:1053C000800AC1ED000AF1D33E48D4F8001190EDF7
:1053D0006F0A60EE090AB6EE000A60EE800AC1EDBF
:1053E000040AD0ED6F0AD4F8001160EEA80A60EE4E
:1053F000800AC1ED050AD0ED6F0AD4F8001120EE45
:10540000A91AFEEE000A21EE201A81ED0A1A90ED8B
:105410006F1AD4F8001121EE081A21EE001A81ED5E
:105420000B1A90ED6F1AD4F8001121EE081A21EE34
:10543000201A81ED101A90ED6F1AD4F8001121EEA8
:10544000291A21EE201A81ED111A90ED6F1AD4F865
:10545000001121EE281A21EE000A81ED160A90EDC6
:105460006F0AD4F8001120EE090A20EE200A81ED1F
:10547000170AD4F8F810D0ED740A91ED1C0A80EEEA
:10548000201A81ED1C1AD4F8F810D0ED740A0E48D9
:1054900091ED230A80EE201A9FED0C0A81ED231A6C
:1054A000D4F8F8100A6F824201DD81ED1C0AD4F8AD
:1054B000F810D1F88C20824201DD81ED230ABDEC89
:1054C000048B10BD6835002000401C4600401C467F
:1054D00070B52C4C01252DED028B04F5D87025708C
:1054E000B7EE008A80EC030A00209FED270A84EDC6
:1054F000730A84F83801C4E95000C4E9520011EE7F
:10550000900AB0F17E5F01DDF0EE481AC4ED741A26
:1055100084ED642A032300220621201D00F04AFEA8
:105520001A4B01221146A3F10800FBF723F854F8A7
:10553000EC0F9FED170A902280ED008A54F8640961
:10554000184980ED010A606E80ED020A606E80ED00
:10555000030A1048A0641048E06410482065104811
:10556000606504F85A5C04F8595CE06FFBF75CFD79
:10557000606F9022BDEC028B0B49BDE87040FBF7D9
:1055800053BD00006835002077CC2B323037002027
:1055900000000000AD55000879530008E1550008EF
:1055A000BD5A000874CE00082802002010B5044639
:1055B000902254F8F81F0848FBF736FD48220748A8
:1055C000616AFBF731FD054861694822BDE810407A
:1055D0004830FBF729BD0000280200204837002092
:1055E00070B50446B0EE000A54F8EC0F2B4DD0ED28
:1055F000000A60EE800AC5ED090AD0ED010A60EEEE
:10560000800AC5ED0A0AD0ED020A60EE800AC5EDF7
:105610000B0AD0ED030A20EE800A85ED0C0A14F87F
:10562000DE0C14F8E01C10FB01F11D48008841431A
:10563000206AFBF755FDD5ED0B1A206AB1EE612A01
:1056400080ED002A206AD5ED0C0AC0ED010A95ED27
:10565000090A206AB1EE401A80ED021A206A95ED1F
:105660000A1A80ED031A206A80ED061A206A80ED7E
:10567000070A206AC0ED080A206AC0ED091A206AEC
:1056800080ED0C0A206AB1EE410A80ED0D0A206A15
:1056900080ED0E2A206AC0ED0F0A70BDE4010020E3
:1056A000DE01002070B5F74C2DED088BB0EE438A7B
:1056B000F0EE629AB0EE42AAF0EE61AA2078B0EE67
:1056C000419AB0EE60BAF0EE40BADFEDEF8A58B919
:1056D000B0EE682ADFEDED1A9FEDED1ADFEDED0A71
:1056E000B2EE040AFFF7F4FE84ED6F8A94ED580AD7
:1056F000E94D90227BEEC00AE849C4ED5B0A94EDC7
:10570000590A3BEE401A84ED5C1A94ED5A0A79EE80
:10571000401AB6EE000A60EE800AC4ED5D1A60EE33
:10572000880AC5ED000A61EE000A21EE800A60EEEB
:10573000880A20EE080AC5ED010A85ED020AD4F8B0
:10574000040104F58274FBF76FFC95ED000A2068F4
:10575000B1EE402A80ED012A95ED011A2068F1EEA4
:10576000412AC0ED022AD5ED021A2068F1EE610A45
:10577000C0ED030A206880ED060A2068C0ED081A13
:105780002068C0ED092A206880ED0C1A2068C0ED61
:105790000D0A206880ED0F0A2068C0ED121A2068FB
:1057A00080ED131A54F8440B80ED142A74E852016A
:1057B000084305D1C4ED5EAA84ED5FAAC4ED609AEA
:1057C00094ED5E0AD4ED640A94ED6F1A20EE202A5F
:1057D00031EE200AC2EE001A21EE2A2AC2EE002A79
:1057E00031EEA22A84ED5E2AD4ED5F1A61EEA02A82
:1057F000C2EE801A61EE0A2A21EE291A82EE803A60
:1058000071EE831AC4ED5F1AD4ED602A62EEA02A0D
:10581000C2EE800AC1EE002A22EE020A01EEA10ABF
:1058200070EEA20AC4ED600A00EEA00A05F03CFA90
:1058300085ED030A5FF0000004EB8001D1ED5E0A04
:10584000A16801EB800160EE800A401CC0B2C1ED8E
:10585000000A0328F0D394ED5B0AD4ED5C0A20EE35
:10586000000A00EEA00AD4ED5D0A00EEA00A05F0E1
:105870001BFAB7EE008A8A49C8EE000AC4ED650A31
:1058800095ED031A10EE900A88EE010A884284ED25
:10589000660A0BDA10EE100A8249884206DD10EE25
:1058A000100A8149884201DA012000E0002084F8D2
:1058B000390194ED6C0AD4ED6F0AD4F8180120EE8A
:1058C000200A80ED000A94ED6C0AD4ED6F0AD4F83A
:1058D000180120EE200A80ED070A94ED6C0AD4ED41
:1058E0006F0AD4F8180120EE200A80ED0E0A94ED1C
:1058F0006C0AD4ED6F0AD4F8180120EE200A80ED6E
:10590000150A94ED6D0AD4ED6F0AD4F8180120EE53
:10591000200A80ED1C0A94ED6D0AD4ED6F0AD4F8CC
:10592000180120EE200A80ED230AD4F81C0194ED22
:105930006E0A80ED000AD4F81C0194ED6E0A80ED29
:10594000040AD4F81C0194ED6E0A80ED080A201DAB
:1059500000F01AFF606890ED001A84ED541A90ED83
:10596000010A61EE012A84ED550AD0ED021AC4ED58
:10597000561A90ED032A40EE002A84ED572AD0ED06
:10598000040A21EE021AC4ED580AD0ED050AC4ED4E
:10599000590A00EE211AC4ED5A8AF0EE008AF0EEA0
:1059A000480A52EEA80A21EE280A04F0F9FD9FEDFC
:1059B0003F9AF0EE480A20EE090A84ED6A0A94ED57
:1059C000541A94ED570A61EE011A40EE001A51EE96
:1059D000A80AD4ED551A21EE211AD4ED561A01EE7B
:1059E000801A21EE280A04F0DBFD20EE090A84ED7E
:1059F000690A94ED550AD4ED570A94ED561A20EE33
:105A0000200AD4ED540A00EEC10AF8EE000A20EE96
:105A1000200A04F02FFD20EE090A254984ED680ACA
:105A200094ED6A0AD4ED760A70EE600A10EE900AE0
:105A3000884203DDB4F8D401401E07E010EE900A5E
:105A40001C49884204D9B4F8D401401CA4F8D401FC
:105A5000B4F9D401DFED181A00EE900AB8EEE01A9E
:105A6000F0EE400A41EE210AC4ED6B0A84ED760A9D
:105A7000F4E95201401C41F10001C4E90001BDEC10
:105A8000088B70BD6835002000000000C9E57F3F2D
:105A90008096184B6F12833AE401002074CE000800
:105AA0009A99993ECDCC1441CDCC2441E12E65424A
:105AB00000003443000034C30000B4432DE9F84F24
:105AC00000F180010446783005460091FBF710F99B
:105AD00084F8C800B4F87800A4F8A800B4F85A0014
