:020000040800F2
:1000000000CF002029030008F7420008C13700088C
:10001000F54200088907000871650008000000002B
:10002000000000000000000000000000690200085D
:100030009908000800000000C5020008F14400080B
:100040004303000843030008430300084303000878
:1000500043030008430300089B080008430300080B
:1000600043030008A1080008A7080008430300088C
:100070004303000843030008430300084303000848
:100080004303000843030008430300084303000838
:100090008D0700084303000843030008AD0800086B
:1000A0004303000843030008430300084303000818
:1000B0004303000843030008430300084303000808
:1000C00043030008430300084303000843030008F8
:1000D00043030008A14A0008430300084303000843
:1000E00043030008430300084303000843030008D8
:1000F00043030008430300084303000843030008C8
:1001000043030008430300084303000843030008B7
:1001100043030008430300084303000843030008A7
:1001200043030008ED0700084303000843030008E9
:100130004303000843030008430300084303000887
:10014000990700084303000843030008F942000828
:10015000F907000805080008110800084303000813
:100160004303000843030008430300084303000857
:100170004303000843030008430300080000000095
:10018000430300084303000800F002F800F05CF8A5
:100190000AA090E8000C82448344AAF10107DA45E2
:1001A00001D100F051F8AFF2090EBAE80F0013F0D8
:1001B000010F18BFFB1A43F001031847487C0000E9
:1001C000687C00000A444FF0000C10F8013B13F06B
:1001D000070408BF10F8014B1D1108BF10F8015BA0
:1001E000641E05D010F8016B641E01F8016BF9D193
:1001F00013F0080F1EBF10F8014BAD1C0C1B09D1EA
:100200006D1E58BF01F801CBFAD505E014F8016B5B
:1002100001F8016B6D1EF9D59142D6D370470000ED
:100220000023002400250026103A28BF78C1FBD8FF
:10023000520728BF30C148BF0B6070471FB507F099
:10024000A7FD1FBD10B510BD00F0D0F91146FFF796
:10025000F5FF06F09EF900F0EEF903B4FFF7F2FFA8
:1002600003BC00F0F5F900002C4B19680868B0E8F1
:10027000F04F80F30988BFF36F8F4FF0000080F3D9
:10028000118870470000000008480068006880F38B
:1002900008884FF0000080F3148862B661B6BFF39F
:1002A0004F8FBFF36F8F00DF00BF00BF08ED00E08E
:1002B000DFF80C00016841F470010160704700BF75
:1002C00088ED00E0EFF30980BFF36F8F134B1A68DE
:1002D0001EF0100F08BF20ED108A20E9F04F1060CB
:1002E00009B44FF0500080F31188BFF34F8FBFF374
:1002F0006F8F07F009F84FF0000080F3118809BCF8
:1003000019680868B0E8F04F1EF0100F08BFB0EC95
:10031000108A80F30988BFF36F8F70478800002030
:10032000EFF30580704700000948804709480047FF
:10033000FEE7FEE7FEE7FEE7FEE7FEE7FEE7FEE795
:10034000FEE7FEE704480549054A064B70470000F2
:100350009D45000889010008008F002000CF002083
:1003600000AF002000AF002053EA020C00F06980CB
:100370002DE9F04B4FF00006002B1FBFB3FA83F5B9
:1003800003FA05F424FA05F65E4012BF1643B2FAEA
:1003900082F502FA05F4C5F120051EBF22FA05FC1C
:1003A00044EA0C04203556EA044C4FEA144418BFC2
:1003B000641C4FF000084FF00009904271EB030CF1
:1003C00039D3002919BFB1FA81F701FA07F6B0FA5B
:1003D00080F700FA07F6C7F120071EBF20FA07FCD6
:1003E00046EA0C062037B6FBF4FCA7EB0507103FE6
:1003F00007F01F0BCBF120060CFA0BFB2CFA06F6CC
:1004000044BFB3460026202FA4BF5E464FF0000B2A
:100410005BEA060C08BF4FF0010B19EB0B09ABFBB5
:10042000027C48EB0608C01B06FB02CC0BFB03CC8E
:1004300071EB0C01C1E70B46024641464846BDE858
:10044000F08B13B54FF000004FF00001AFF30080C8
:10045000BDE81C407047032A40F2308010F0030CC6
:1004600000F0158011F8013BBCF1020F624498BF07
:1004700011F801CB00F8013B38BF11F8013BA2F1A4
:10048000040298BF00F801CB38BF00F8013B11F01F
:10049000030300F02580083AC0F0088051F8043BBF
:1004A000083A51F804CBA0E80810F5E7121D5CBF2C
:1004B00051F8043B40F8043BAFF30080D20724BF5F
:1004C00011F8013B11F801CB48BF11F8012B24BFF3
:1004D00000F8013B00F801CB48BF00F8012B704742
:1004E00010B5203AC0F00B80B1E81850203AA0E8CF
:1004F0001850B1E81850A0E81850BFF4F5AF5FEA03
:10050000027C24BFB1E81850A0E8185044BF18C9B5
:1005100018C0BDE810405FEA827C24BF51F8043B5C
:1005200040F8043B08BF7047D20728BF31F8023BB0
:1005300048BF11F8012B28BF20F8023B48BF00F844
:10054000012B704702F0FF0343EA032242EA024212
:1005500000F02CB84FF0000200B5134694469646C2
:10056000203922BFA0E80C50A0E80C50B1F12001C6
:10057000BFF4F7AF090728BFA0E80C5048BF0CC074
:100580005DF804EB890028BF40F8042B08BF7047D2
:1005900048BF20F8022B11F0804F18BF00F8012B44
:1005A00070477047704770474FF000020429C0F051
:1005B000128010F0030C3FF4CFAFCCF1040CBCF16F
:1005C000020F18BF00F8012BA8BF20F8022BA1EBE7
:1005D0000C01FFF7C1BF5FEAC17C24BF00F8012B0B
:1005E00000F8012B48BF00F8012B7047754600F05A
:1005F0002BF8AE4605006946534620F007008546B5
:1006000018B020B5FFF79EFEBDE820404FF0000671
:100610004FF000074FF000084FF0000B21F00701EA
:10062000AC46ACE8C009ACE8C009ACE8C009ACE82D
:10063000C0098D46704710B50446AFF300802046D0
:10064000BDE81040FFF709BE00487047A08E0020AB
:1006500001491820ABBEFEE72600020070470000EB
:10066000464910B54A6822F440324A604A684368F5
:100670001A434A6001684A6822F480724A6001683D
:100680004A68036942EA03224A6001684A6822F024
:1006900040724A6001684A6883681A434A60016888
:1006A0008A6822F400628A6001688A68C3681A4313
:1006B0008A60816A6FF07062D14201688A6822F0B4
:1006C00070628A6001688A680CD0836A1A438A6003
:1006D00001688A6822F040528A6001688A68C36AA9
:1006E0001A4301E022F040528A6001688A6822F0D1
:1006F00002028A6001688A68037E42EA43028A60D5
:1007000090F82010002901684A680FD042F4006276
:100710004A6001684A6822F460424A6001684A6897
:10072000174C436A04EB43331A4301E022F400629E
:100730004A600168CA6A22F47002CA620168CA6A21
:10074000838B104C04EB03531A43CA6201688A6816
:1007500022F400728A6001688A6890F8303042EAB8
:1007600043228A6001688A6822F480628A60016894
:100770008A68406942EA8020886010BD00230140F9
:1007800000E0FFFF0000F0FFFEE70000014800F07E
:10079000A2B90000CC080020014800F09CB900007C
:1007A000F4080020002070470020704710B5002298
:1007B0000449054804F05AFB0449034804F049FB86
:1007C000002010BD6024002080100020601C00204C
:1007D00010B50146034804F03CFB024804F012FB4C
:1007E000002010BD8010002000207047014800F05C
:1007F00009BC0000C00F0020014800F003BC00004D
:10080000000F0020014800F0FDBB00002010002078
:10081000014800F0F7BB0000A00E0020016818237B
:10082000CAB2103AB2FBF3F2054B6FF30901032A87
:100830009B5CC36500D9091D8165084670470000AF
:10084000D47D000810B5014600208B698A6A4FF0FC
:10085000C07453B1B3F5005F15D072B1012A0CD04A
:10086000022A0AD0032A09D104E01AB1012A06D0CB
:10087000022A03D1C96AC90100D5012010BDC96A85
:10088000A142FAD010BD002AF7D0012AF2D0022AE4
:10089000F3D0032AF3D010BD7047012000F000BD53
:1008A000082000F0FDBC102000F0FABC202000F071
:1008B000F7BC72B6FEE7000078B50024009490F80B
:1008C0003C20012A19D0012280F83C200A68072325
:1008D0000568092A13D9EE680A3A02EB42029340EE
:1008E0009E43EE600B788A680A3B03EB43039A4011
:1008F0000368DD682A43DA6010E0022078BD2E69C3
:1009000002EB420293409E432E610B788A6803EB10
:1009100043039A4003681D692A431A614A681F23EA
:10092000072A13D205686E6B521E02EB82029340B7
:100930009E436E630B790A885B1E92B203EB8303BE
:100940009A4003685D6B2A435A6327E005680D2AC5
:1009500012D22E6BD21F02EB820293409E432E6373
:100960000B790A88DB1F92B203EB83039A4003687A
:100970001D6B2A431A6311E0EE6A0D3A02EB820204
:1009800093409E43EE620B790A880D3B92B203EBD3
:1009900083039A400368DD6A2A43DA62164B0568CE
:1009A000144A9D4206D10D68122D03D1556845F4B5
:1009B0008005556005689D4218D10B68102B01D049
:1009C000112B13D1536843F40003536009681029B5
:1009D0000CD10A490A4A0968B1FBF2F101EB810125
:1009E000490000E0491E00910029FBD180F83C40FD
:1009F000002078BD00230140002001408400002039
:100A000040420F0070B504004FF0000503D0206C89
:100A1000002610B107E0012070BD204600F01CF850
:100A2000666484F83C60206CC00610D4206C20F40E
:100A3000885040F0020020642046FFF711FE6664F3
:100A4000206C20F0020040F00100206400E001254D
:100A500084F83C60284670BD10B586B00446142169
:100A60006846FFF777FD174B2268002116489A4227
:100A700009D1016841F480710160006800F4807060
:100A8000059006B010BD114B9A42FAD1026842F4AB
:100A900080620260006800F4806005900A481438A3
:100AA000026842F020020260006800F02000059019
:100AB000181500900320CDE901016946044800F0B3
:100AC000FBFBDEE7002001404438024000220140E9
:100AD0000014024070472DE9F05F054600680024CD
:100AE0004669D0F804908768D0F80CB0D0F810A010
:100AF000D0F81880F10748D0F90714D0012181609F
:100B0000B80703D5284600F0F5F90CE0780702D5C0
:100B10004FF4006407E0380702D54FF4805402E038
:100B2000284600F0E6F9F80516D529684FF48070DC
:100B30008860B80503D5284600F0DEF90CE078059A
:100B400002D544F4005407E0380502D544F480444B
:100B500002E0284600F0CFF9F80316D529684FF4D3
:100B600080308860B80303D5284600F0C7F90CE050
:100B7000780302D544F4004407E0380302D544F476
:100B8000803402E0284600F0B8F9300707D55FEA64
:100B9000CB6004D52968102044F40074C860700745
:100BA0004FF0080707D55FEA0B7004D52868C760C7
:100BB000284600F099F9B00706D52868C068800774
:100BC00002D0284600F091F9700607D55FEACA60A6
:100BD00004D52968102044F480640861B00607D564
:100BE0005FEA0A7004D528680761284600F07EF99C
:100BF000F00606D528680069800702D0284600F074
:100C000076F9B00308D55FEAC96005D529681020D8
:100C10004860284600F06CF9F00307D55FEA0970D8
:100C200004D528684760284600F069F9300446D5A5
:100C30005FEA497040D5F00504D55FEAC87001D07D
:100C400044F00104B00504D55FEA887001D544F092
:100C50000204700504D55FEA487001D544F004042D
:100C6000300529D518F0700F26D008F07000402804
:100C700015D006DC102809D020280AD0302816D13B
:100C80000AE050280ED0602811D10EE044F008048C
:100C90000DE044F010040AE044F0200407E044F0C2
:100CA000400404E044F0800401E044F480742868C7
:100CB000816921F070018161296804204860002C5D
:100CC00005D0686A204368622846FFF703FFBDE845
:100CD000F09F70B5040003D094F8200010B104E038
:100CE000012070BD204600F081F82068016841F0C5
:100CF0000101016000F0DEFB0546052604E000F07E
:100D0000D9FB401B0A2811D820684068C007F6D0DC
:100D10002068016821F00201016000F0CBFB05466C
:100D20000BE000F0C7FB401B0A2806D9606A40F4BC
:100D30000030606284F82060D2E720684068800755
:100D4000EFD4207E0128206801683DD021F0800189
:100D50000160607E01282068016838D021F04001E0
:100D60000160A07E01282068016833D021F02001B5
:100D70000160E07E0128206801682ED041F010015A
:100D80000160207F01282068016829D021F0080136
:100D90000160607F01282068016824D021F00401EF
:100DA0000160D4E902010843D4E904121143084365
:100DB0006168491E08432168C86100206062012003
:100DC00084F82000002070BD41F08001C0E741F0B0
:100DD0004001C5E741F02001CAE721F01001CFE74B
:100DE00041F00801D4E741F00401D9E7F0B587B03C
:100DF000044614216846FFF7ADFB364B3648DFF852
:100E0000D0E01968D4F800C0334A03250226092728
:100E100010300024491CF44522D11960012907D162
:100E2000016841F000710160006800F000700590F9
:100E3000106840F0080010601068CDE9005600F01E
:100E40000800CDE9047069462448CDE9024500F068
:100E500033FA00220521142000F00EFD142032E0A8
:100E6000DFF87CE0F44530D1D0F800C04CF0806C65
:100E7000C0F800C0D0F800C001290CF0806CCDF89B
:100E800014C0196007D1016841F000710160006869
:100E900000F000700590106840F0020010601068CB
:100EA00002AB00F0020005906020CDE9000683E867
:100EB000B00069460B4800F0FFF9002206214020EF
:100EC00000F0DAFC402000F0C9FC07B0F0BD0000E3
:100ED000006400400800002030380240000C02404E
:100EE0000068004000040240704770477047704738
:100EF000704770477047704770477047704770473A
:100F000010B5040002D0607910B106E0012010BDD8
:100F100000202071204600F005F8012060710020BB
:100F200010BD000008B500680649884208D106488F
:100F3000016841F480510160006800F48050009025
:100F400008BD000000300240303802402DE9F04179
:100F50000446876D00F0AEFA064694F83500002589
:100F6000022806D08020606584F834500120BDE856
:100F7000F0812068016821F0160101602068416954
:100F800021F080014161206C08B9A06C20B120687B
:100F9000016821F0080101602068016821F0010169
:100FA00001600CE000F086FA801B052807D920209C
:100FB0006065032084F8350084F83450D7E7206852
:100FC0000068C007EED194F85C103F208840B860FC
:100FD000012084F8350084F834500020C7E790F8E9
:100FE0003510022903D08021416501207047052179
:100FF00080F835100068016821F0010101600020CF
:10100000704700002DE9F84304464FF00009CDF881
:10101000009063484FF41651A56D0068B0FBF1F7DE
:101020002E6894F85C10082000FA01F131420FD0CC
:1010300021680A6852070BD50A6822F004020A6088
:1010400094F85C108840A860606D40F00100606515
:1010500094F85C104FF0010808FA01F0304208D013
:1010600021684969090604D5A860606D40F0020056
:10107000606594F85C1004208840304208D02168F4
:101080000968890704D5A860606D40F004006065B8
:1010900094F85C1010208840304218D0216809680C
:1010A000090714D5A86020680168490304D50068C1
:1010B000000308D5A16C07E00168C90503D40168E5
:1010C00021F008010160216C09B12046884794F89D
:1010D0005C1020208840304231D021680968C90660
:1010E0002DD5A86094F8350005282068016806D041
:1010F000490347D5006800031DD4616C1CE021F052
:10110000160101602068416921F080014161206C75
:1011100008B9A06C20B12068016821F008010160C5
:1011200094F85C103F208840A86084F8358084F8EB
:101130003490216D1FE0E16B09B120468847606D56
:1011400000282BD0606DC00714D0052084F835002E
:101150002068016821F0010101600098401C0090A6
:10116000B84203D820680068C007F6D184F83580FB
:1011700084F83490E16C002910D001B02046BDE81D
:10118000F04308470168C905D5D4016821F0100172
:10119000016084F8358084F83490CCE7BDE8F883AA
:1011A000840000202DE9F041044600F083F9064652
:1011B0005CB1022084F83500002584F834502068A2
:1011C000016821F0010101600DE00120BDE8F0811E
:1011D00000F070F9801B052805D9202060650320E8
:1011E00084F83500F2E720680068C007F0D1226873
:1011F000116820480140D4E901031843D4E90336BB
:101200003343184363691843A3691843E3691843D8
:10121000236A18430843616A042903D1D4E90B13F4
:1012200019430843106020684069666A20F007018E
:1012300030460E43012704280CD1A06A0643E06A19
:1012400040B12046FFF7FEFA20B14020606584F8E7
:101250003570BAE7206846612046FFF7DFFA94F858
:101260005C203F2191408160656584F835700020E5
:10127000ACE700003F8010F070B5044600F01AF9AA
:101280000546601C02D004480078044400F012F9BE
:10129000401BA042FAD370BD7800002070470000C8
:1012A000044910B50A68024202D00860FFF7F6FF51
:1012B00010BD0000143C01402DE9F84FDFF8BCA13F
:1012C0000022012503264FF00F090AF1040BAAF1B1
:1012D000040E00BF0B6805FA02F42340A34270D14C
:1012E0000F7907F00307012F01D0022F16D187686D
:1012F0004FEA420806FA08FC27EA0C07D1F80CC0AE
:101300000CFA08FC4CEA070CC0F808C04768A74371
:101310000C79C4F3001494403C4344600C79E443DA
:10132000A4070AD0C4684FEA420C06FA0CF7BC4383
:101330008F6807FA0CF72743C7600C7904F00304A1
:10134000022C12D1D40800EB840CDCF820405707A3
:10135000FF0E09FA07F824EA0804D1F8108008FA09
:1013600007F848EA0408CCF8208004684FEA420CE9
:1013700006FA0CF7BC430F7907F0030707FA0CF7DE
:10138000274307604C6814F4403F70D03C4C2768FA
:1013900047F480472760246822F0030704F4804460
:1013A0000094384C07EB040CDCF8084897074FEA28
:1013B000177809FA08F7BC43334FB84202D1002727
:1013C00024E054E0314FB84201D101271EE0304FF4
:1013D000B84201D1022719E02E4FB84201D10327AC
:1013E00014E02D4FB84201D104270FE02B4FB84233
:1013F00001D105270AE02A4FB84201D1062705E0AE
:10140000284FB84201D1072700E0082707FA08F75C
:101410002743CCF80878DAF800405746D1F804C0E2
:101420009C435FEACC2C00D51C433C60DBF80040B9
:101430005F46D1F804C09C435FEA8C2C00D51C4366
:101440003C60DEF800407746D1F804C09C435FEA78
:101450008C3C00D51C433C60084F083F3C68D1F8E9
:1014600004C09C435FEACC3C00D51C433C60521C4A
:10147000102AFFF42FAFBDE8F88F0000083C0140B0
:1014800044380240003001400000024000040240A5
:1014900000080240000C024000100240001402400C
:1014A00000180240001C02400AB181617047090423
:1014B000FBE70000014880687047000078000020CA
:1014C00070B5040025D094F83D00002520B984F8BB
:1014D0003C50204600F0B8F8242084F83D002068F5
:1014E000016821F0010101602068016841F40041B8
:1014F00001602068016821F40041016001F048F8B2
:101500004D4A6168914201D84C4900E04C498842FB
:1015100001D2012070BD4B492368B0FBF1F15E6838
:1015200026F03F060E435E606368934206D94FF48F
:10153000967359434FF47A73B1FBF3F12368491C56
:101540001E6A26F03F06314319626168914210D845
:101550004900401EB0FBF1F2521CC2F30B02042AF8
:1015600001D2042022E0B0FBF1F0401CC0F30B00DC
:101570001CE0A268F2B301EBC10303EB0116431EAA
:10158000B3FBF6F35B1C43F480431B0549D092B3D5
:1015900001EBC10202EB0111401EB0FBF1F0401C57
:1015A000C0F30B0040F4804040F400402168CA6959
:1015B0004CF6FF739A431043C861D4E90710014306
:1015C0002068026822F0C00211430160D4E90301DF
:1015D00001432068826848F2FF339A4311438160D7
:1015E000D4E9050108432168CA6822F0FF021043CC
:1015F000C86001E00EE016E02068016841F00101DA
:1016000001602564202084F83D00256384F83E5065
:10161000002070BD01EB4106431EB3FBF6F35B1CDB
:10162000B3E70120C2E701EB4101401EB0FBF1F03E
:10163000401CC0F30B00B7E7A086010080841E00A9
:1016400000093D0040420F002DE9F04387B00746F6
:1016500014216846FEF77EFF484C474B3A68002647
:1016600046481221032510344FF001084FF00409B9
:101670009A4218D1026842F002020260006800F04B
:101680000200059028028DE80301CDE9035969465F
:101690003B48FFF711FE206840F4001020602068EE
:1016A00000F4001065E0374B9A4234D1026842F0F2
:1016B000200202600068CDE9005100F02000CDE971
:1016C0000490CDE9028569462F48FFF7F5FD2068B3
:1016D00040F48000206020682D4C00F480000590CC
:1016E0002A4820604FF0606060604020C4E9020634
:1016F0000001C4E90406C001A661C4E907602046F0
:101700006662FFF74FFD08B1FFF7D3F87C63A7636C
:1017100007B0BDE8F0831F4B9A42F9D1026842F04E
:1017200004020260026802F004020592026842F0BC
:101730000102026000680E4600F001000590581595
:101740008DE84101CDE9035969461348FFF7B4FD1F
:101750004FF480708DE84101CDE9035969460F4887
:10176000FFF7AAFD206840F400002060206800F424
:1017700000000590CCE700000054004030380240E3
:10178000000402400058004000140240B8600240CB
:10179000180A0020005C00400008024000000240DF
:1017A0000248816802781144816070477800002007
:1017B0000B4810B5016841F400710160016841F403
:1017C00080610160016841F480710160032000F0D4
:1017D00073F80F2000F006F800F024F8002010BD88
:1017E000003C024070B50D4D04464FF47A712878E4
:1017F000B1FBF0F00A490968B1FBF0F001F088FA9A
:1018000048B9102C07D200222146501E00F034F8AF
:1018100000206C6070BD012070BD000078000020C9
:10182000840000200C4882B0016841F480410160CE
:10183000006800F4804000900748001F016841F0F4
:10184000805101600068002200F0805000900F215C
:10185000901E02B000F010B844380240002809DBA6
:1018600000F01F02012191404009800000F1E020BA
:10187000C0F8001170470000F0B40E4B1B680C4616
:10188000C3F30223C3F10705042D00D90425191D54
:10189000072901D2002300E0DB1E012606FA05F12C
:1018A000491E214099409E40761E16403143F0BCAF
:1018B00004F05FBE0CED00E0064900F00702086886
:1018C0004FF6FF03184040EA0220034A1043086025
:1018D000704700000CED00E00000FA05704700685A
:1018E000416200207047F0B50368586A39B19C6ABC
:1018F0004FF4827600EB144400204D1E0AE040EACB
:10190000024098620FE006EB8007DF59401C04EBB1
:101910001744C0B2A842F6D344EA02404FF48072A2
:1019200002EB810158500020F0BDD0F8E00403F034
:1019300080BD01EBC10200EB8202D0F8E004126A24
:1019400003F0D5BC01EBC10200EB8202D0F8E00449
:10195000D2F8602203F026BDD0F8E00403F06BBD9E
:101960000A0601F00F0101EBC10100EB810101D575
:10197000143101E001F51571006804F047BC70B541
:1019800004460B0601F00F0000EBC00104EB8101DF
:101990004FF001024FF0000502D54A75143103E003
:1019A00081F8555201F51571087094F894040128D6
:1019B00008D084F89424206804F042F984F8945400
:1019C000002070BD022070BD70B5044601F00F000C
:1019D0002279904201D9012070BD0B0601F00F0160
:1019E00001EBC10104EB81014FF001024FF0000552
:1019F00002D54A75143103E081F8555201F515718D
:101A00008D70087094F89404012808D084F8942408
:101A1000206804F087FA84F89454002070BD0220F6
:101A200070BD01F00F0101EBC10100EB8100D0F8A6
:101A3000680270472DE9F04104460F0601F00F00DF
:101A400000EBC00104EB81014FF001064FF00005EF
:101A500002D54E75143103E081F8555201F5157128
:101A6000C2F30A0208708A600B714A7802B1488397
:101A7000022B00D14D7194F89404012809D084F808
:101A80009464206804F02EF8284684F89454BDE845
:101A9000F0810220FBE710B501F00F0404EBC40154
:101AA00000EB8101C1E998230023C1F8683281F875
:101AB000553281F85442837901F51571012B00D11B
:101AC000CA618279006804F085FA002010BD70B503
:101AD00004460D4601F00F002179884201D901200A
:101AE00070BD29064FF000064FF0010206D500EB4D
:101AF000C00104EB81014A75143107E005EBC50113
:101B000004EB810181F8556201F515718A70087046
:101B100094F89404012807D084F89424206804F0F1
:101B20002DFA280702D007E0022070BDA17904F247
:101B30009C42206804F0CAF984F89464002070BDC7
:101B400010B501F00F0404EBC40100EB8101C1E901
:101B5000082300238B6201234B7501F8144F83790E
:101B6000012B00D1CA618279006804F033FA0020A9
:101B700010BD00002DE9FC5F05680446284604F00E
:101B8000E1FB00287DD1206804F008FC002878D013
:101B9000D5F80808C0F30D20C4F8D404206804F078
:101BA000FDFB800704D52068416901F00201416115
:101BB000206804F0F3FBC10604F29C40009034D589
:101BC0002068816921F0100181612F6A07F00F0000
:101BD00000EBC00004EB8006C7F3434006F5157622
:101BE000022802D0062811D01AE047F6F07007420A
:101BF00016D0C7F30A1217462846F16804F0D2FB44
:101C0000F0683844F0607069384408E008222846DB
:101C1000009904F0C7FB7069C7F30A1108447061AA
:101C20002068816941F010018161206804F0B6FBF1
:101C300000034FF0080B4FF0000A4FF001097CD56C
:101C40000026206804F089FB074674E0F80770D08E
:101C5000F1B2206804F09AFB8046C00707D005EB7C
:101C60004611C1F8089B3146204602F04BFB5FEA63
:101C7000087024D505EB4611C1F808BB2068016C3B
:101C800000E023E200EB46100191D0F8082BFB4B5B
:101C9000994205D9110403D54FF40041C0F8081B3F
:101CA000204600F0F6FAF5490198884207D9A07954
:101CB000012804D120680121009A04F007F95FEAA5
:101CC000C86004D505EB46111020C1F8080B5FEA87
:101CD00088701DD56869000605D5D5F8040840F45C
:101CE0008061C5F8041806EBC60004EB800090F88C
:101CF000571200F51570012905D180F803A0F1B243
:101D0000204600F0E9F905EB46110220C1F8080B66
:101D10005FEA886004D505EB46102021C0F8081B57
:101D20005FEA884005D505EB46104FF40051C0F836
:101D3000081B7F08761C002F88D1206804F02EFB3A
:101D400040036ED5206804F001FB0746002666E0DC
:101D5000F80762D0F1B2206804F006FB8046C007A5
:101D600023D006F00F01D5F8342809FA01F18A438F
:101D7000C5F8342805EB4611C1F80899A079012867
:101D80000FD106EBC60004EB8000D0E90721114417
:101D9000016236B9606A20B920680121009A04F016
:101DA00095F8F1B22046FFF7C4FD5FEA087003D54D
:101DB00005EB4611C1F808B95FEAC86004D505EB28
:101DC00046111020C1F808095FEA486004D505EB08
:101DD00046104021C0F808195FEA887016D53146D0
:101DE000284604F084FA06EBC60004EB8000C17DAF
:101DF0001430012905D180F803A0F1B2204600F08B
:101E000067F905EB46110220C1F808095FEA08608E
:101E100003D53146204602F0DBFA7F08761C002FFE
:101E200096D1206804F0BAFA002811DAD5F804082F
:101E300020F00101C5F8041894F8CC0401282BD037
:101E4000204600F00BFA2068416901F00041416131
:101E5000206804F0A3FA00050BD5D5F80808C007E0
:101E600002D0204600F03EFA2068416901F400618A
:101E70004161206804F092FAC00467D5D5F80408DF
:101E800020F00100C5F804081021206804F02FFAA2
:101E900000214FF67F3220E084F8CCA400212046B8
:101EA000FFF71CFDCFE700BF05EB4110C0F8082984
:101EB000D0F8003923F40013C0F80039C0F8082B1B
:101EC000D0F8003B23F40013C0F8003BD0F8003BEF
:101ED00043F00063C0F8003B491C20798842E3D8F6
:101EE000D5F81C0840F00111C5F81C18E07B00284B
:101EF00028460DD0D0F8840840F00B01C5F88418AE
:101F0000D5F8440840F00B012846C5F844180DE008
:101F1000D0F8140842F22B010843C5F81408D5F88C
:101F2000100840F00B012846C5F81018D0F800083A
:101F300020F4FE61C5F80018A1792068009A03F02A
:101F4000C5FF2068416901F480514161206804F0B7
:101F500025FA800415D5206803F004FE206804F0FB
:101F6000E4F9E07100F00EFB0146E279206804F02C
:101F700077FA204600F05CF92068416901F40051CD
:101F80004161206804F00AFA000707D5204600F0F6
:101F900069F92068416901F008014161206804F095
:101FA000FDF9000616D5A86920F08001A961012677
:101FB0000DE000BF06EBC60004EB800090F857026E
:101FC000012803D1F1B22046FFF7CAFC761C207924
:101FD000B042EFD8206804F0E1F9C0021FD5012615
:101FE0004F4614E005EB4610D0F8001906EBC6008A
:101FF00004EB8002107E012808D1002906DAF0B235
:1020000040F08001D7752046FFF7AAFC761C2079A6
:10201000B042E7D82068416901F48011416120682D
:1020200004F0BCF9800234D501204A4629E000BF03
:1020300005EB4011D1F8001B00EBC00304EB830358
:1020400093F85862012E1BD1002919DA94F8D46450
:1020500001F4803106F00106B14211D183F8572214
:10206000A96941F08003AB616969090608D4D5F814
:10207000040840F40070C5F8040805E00A30544F25
:10208000401C21798142D3D82068416901F40011B4
:102090004161206804F082F9400007D52046FFF72F
:1020A00044FC2068416901F080414161206804F0EE
:1020B00075F940070AD520684568680702D52046AB
:1020C000FFF74AFC2068416829434160BDE8FC9F56
:1020D000D0F8E00403F001BAD0F8E00403F011BA3C
:1020E000F8B5040005D094F895042668002510B1D1
:1020F00006E00120F8BD84F89454204600F056F81C
:10210000032084F89504B6F1A04F00D1A571206892
:1021100003F0D6FE207C8DF8000094E80F0003F059
:102120002FFD0226B8BB0021206804F05AF990BBAD
:10213000002001270DE000BF00EBC00104EB81018E
:102140004F750875C8850D76CD610D62401CC0B213
:102150004D6221798142EFD8002011E000EBC001EF
:1021600004EB810181F8555281F8540281F85852EC
:10217000C1F85C52C1F86052401CC0B2C1F8645250
:1021800021798142EAD8207C8DF8000094E80F0084
:1021900003F0D8FD10B184F89564AAE7657484F85B
:1021A0009574206803F0C0FD0020F8BD10B586B01E
:1021B000044614216846FEF7CDF92068B0F1A04F1F
:1021C0002FD119480021026842F001020260006824
:1021D00000F0010005904FF4E05000900220CDE99E
:1021E0000101032003900A20049069460F48FFF77D
:1021F00063F80D48001D016841F0800101600A4844
:102200001430016841F4804101600068002200F44C
:102210008040059005214320FFF72EFB4320FFF768
:102220001DFB06B010BD0000303802400000024027
:1022300070B50446C079012570B1022801D0FEF7BF
:1022400038FB2946D4F8E00403F0C9F9D4F8E004D7
:10225000BDE8704003F07EB90025F2E7D0F8E00455
:1022600003F0A6B9D0F8E00403F0ACB910B5044609
:1022700090F8940401280AD0012084F89404617431
:10228000206804F0DCF8002084F8940410BD0220DB
:1022900010BDD0F8E02400F29C41104603F0ABB929
:1022A00010B50446006894F89414012909D001215E
:1022B00084F89414C168490609D5617B012902D0CC
:1022C00005E0022010BD816B41F4803181632068FC
:1022D00003F0EBFF206803F019FD002084F894045C
:1022E00010BD000010B50446D0F8E00403F0C5F9B5
:1022F0002068D0F8001E41F00101C0F8001EE07A0D
:10230000002804D00248016841F00601016010BDB8
:1023100010ED00E02DE9F843054600684FF0010993
:10232000C1074FF0000601D1400727D5DFF80C8127
:10233000C8F86860FFF7BEF80746414C05E000BFEB
:10234000FFF7B8F8C01B022857D820680001F7D45F
:1023500068688101287A41EA00703949843108604F
:10236000C8F86890FFF7A6F8074604E0FFF7A2F860
:10237000C01B022841D820680001F7D528788007C3
:1023800052D52F484030016841F08051016000680B
:102390002C4C00F080500090206840F48070206049
:1023A000FFF788F8074604E0FFF784F8C01B02280F
:1023B00023D82068C005F7D5214C7034206810F46C
:1023C000407020D0A98901F4407181421BD020685F
:1023D0001D4920F44070C1F800900E602060206814
:1023E000C00710D0FFF766F8064641F2883707E0CD
:1023F000FFF760F8801BB84202D90320BDE8F883DC
:1024000020688007F4D5E9680D48C1F3012208303F
:10241000032A0BD0016821F4F81101602068A98912
:10242000C1F30B01084320600020E7E70268074B77
:1024300022F4F81219400A430260EFE70000474215
:102440000038024000700040400E4742FFFCFF0F82
:102450002DE9F0470E46050065D0DFF81481D8F865
:102460000000F7B200F00700B04207D288F8007011
:10247000D8F8000000F00700B04254D128683D4C65
:10248000810712D5400703D5206840F4E050206052
:102490002878000703D5206840F460402060206859
:1024A000A96820F0F000084320602878C0072DD0EC
:1024B000304968680839012812D0022813D003284F
:1024C00011D00968890700292DDA216821F003015C
:1024D00001432160FEF7EEFF814641F2883A0EE0AB
:1024E00009688903EFE709688901ECE7FEF7E2FF75
:1024F000A0EB0901514502D90320BDE8F08720680F
:10250000696800F00C00B0EB810FEFD1D8F8001033
:10251000404601F00701B14207D90770006800F09A
:102520000700B04201D00120E7E72878400705D531
:102530002068E96820F4E05008432060287800070C
:1025400006D52068296920F4604040EAC100206077
:1025500000F03EF82168084AC1F30311515CC840FD
:102560000649086006480068FFF73CF90020C4E708
:10257000003C024008380240DC7D00088400002056
:102580007C000020014800687047000084000020A3
:102590000448054900680968044AC1F38221515C76
:1025A000C84070478400002008380240EC7D0008D5
:1025B0000448054900680968044AC1F34231515C86
:1025C000C84070478400002008380240EC7D0008B5
:1025D000154810B5006810F00C02144813D01449C7
:1025E000042A0FD0082A0ED10F4C241F226823681A
:1025F00002F03F025B0207D52068C0F38810A0FB01
:10260000010106E0084610BD2168C1F38811A1FB55
:1026100000010023FDF7A8FE2168C1F30141491C18
:102620004900B0FBF1F010BD083802400024F4006E
:10263000001BB7002DE9F84F04006ED02078DFF8BA
:102640004C93C007A9F104054AD009F104000168C0
:10265000C1F38101012908D00068C0F3810002287C
:102660000AD1D9F80000400206D52868800337D582
:1026700060680028E1D033E06068B0F5803F10D09A
:10268000B0F5A02F286810D020F48030286028688A
:1026900020F4802028606068A8B1FEF70BFF064692
:1026A0000DE0286840F48030F4E740F48020286092
:1026B000F7E700BFFEF7FEFE801B642873D828688A
:1026C0008003F7D50CE0FEF7F5FE064605E000BFF7
:1026D000FEF7F0FE801B6428F0D828688003F7D44A
:1026E0002078DFF8AC8280074FF0000A3ED5A7487B
:1026F000001D016811F00C0F08D00068C0F38100C4
:1027000002280BD1D9F80000400207D428688007BE
:1027100016D5E068012800D112E033E1E068B8B1D5
:102720000120C8F80000FEF7C5FE064605E000BF20
:10273000FEF7C0FE801B0228C0D828688007F7D5A6
:102740002868216920F0F80040EAC10028600DE007
:10275000C8F800A0FEF7AEFE064604E0FEF7AAFEAB
:10276000801B02281FD828688007F7D4207800072C
:1027700022D5864F87486169703771B101210160A8
:10278000FEF798FE064604E0FEF794FE801B022842
:1027900009D838688007F7D50EE0C0F800A0FEF72A
:1027A00089FE064605E082E0FEF784FE801B0228D3
:1027B0007DD838688007F7D42078400768D5DFF8DF
:1027C000CCB100270BF13C0BDBF80000C0000BD4B0
:1027D000DBF8001041F08051CBF80010DBF800006E
:1027E000012700F0805000906B4E3068C00510D477
:1027F000306840F480703060FEF75CFE009005E0C9
:10280000FEF758FE0099401A022850D83068C005DB
:10281000F6D55E4EA0686C3601280FD005283068CA
:1028200010D020F001003060306820F004003060EB
:10283000A068B8B1FEF73EFE00900FE0306840F0AF
:102840000100F4E740F004003060F7E7FEF732FEE5
:102850000099411A41F28830814266D83068800779
:10286000F4D50EE0FEF726FE009007E0FEF722FE0C
:102870000099411A41F28830814256D83068800769
:10288000F4D42FB1DBF8001021F08051CBF8001008
:10289000A069C8B33D49091D0968C1F38101022936
:1028A0004AD00228504607D0C8F8600000E03CE05B
:1028B000FEF700FE04463BE04746C8F86000FEF71E
:1028C000F9FD064605E000BFFEF7F4FD801B022877
:1028D0002BD828688001F7D4D4E907010843A16AFE
:1028E0002E4A490802EB0141626A41EA821108431B
:1028F00094F82C1040EA0161C9F8001001203866F4
:10290000FEF7D8FD044606E03EE000BFFEF7D2FD2C
:10291000001B022809D828688001F7D534E000BFE1
:10292000FEF7C8FD001B022802D90320BDE8F88F7E
:1029300028688001F4D427E00128F7D0D9F80000F6
:10294000E26900F4800191421CD1226A00F03F014B
:10295000914217D147F6C071626A0140B1EB821F04
:1029600010D1A26A4FF0FF3300F4403103EB520262
:10297000B1EB024F06D194F82C1000F07060B0EB70
:10298000016F01D00120D1E70020CFE704380240D9
:1029900000004742800E4742007000400000FFFFE9
:1029A00070B5040003D06079002510B105E0012066
:1029B00070BD2571204600F00DF80220607120687E
:1029C000016841F00401016001206071A5600020F0
:1029D00070BD000008B500680649884208D1064865
:1029E000016841F040010160006800F04000009083
:1029F00008BD0000000806503438024010B504003D
:102A000002D0607F10B106E0012010BD00202077C9
:102A1000204600F041F8022060772068C168C94371
:102A2000C90632D5CA214162216853204862204636
:102A300001F020FD20BB20688168164A11408160AA
:102A40002168886862681043D4E904231A4310435C
:102A500088602168E068086120680169228941EA8C
:102A600002410161204601F029FD48B921680A6C44
:102A700022F480220A6421680A6CA3691A430A645A
:102A80002268FF21516208B110BD00200121617749
:102A900010BD0000BFFF8FFF1FB500210091019105
:102AA000029103910068084988420CD102200090ED
:102AB000064803906846FFF72DFC08B1FDF7F9FEC4
:102AC0000349012008601FBD0028004000031E00CC
:102AD0003C0E474270B504460B482168C860FEF7BB
:102AE000E9FC05464FF47A7607E000BFFEF7E2FC0A
:102AF000401BB04201D9032070BD2068C068800629
:102B0000F4D5002070BD00005F7F010070B50400A7
:102B100009D0606A002540B125616561A56294F81D
:102B2000510040B10CE0012070BD6068B0F5827FBB
:102B3000F4D0E561F2E784F85050204600F044F804
:102B4000022084F851002068016821F040010160F2
:102B5000A088218900F4827001F404410843A1890E
:102B600001F400610843217C01F002010843217D4A
:102B700001F001010843218B01F400710843217F1A
:102B800001F03801084394F8201001F08001084357
:102B9000218D01F40051084321680860A0690421D7
:102BA00001EA104094F8241001F010010843216854
:102BB00048602068C16921F40061C1616565012038
:102BC00084F85100002070BD2DE9F04786B005461D
:102BD00014216846FDF7BEFCDFF818C12968464895
:102BE0000226012703220523DFF810810024614516
:102BF00060D141491431D1F800C04CF4805CC1F877
:102C000000C0096801F480510591016841F002019A
:102C10000160016801F002010591016841F00101C4
:102C200001600068914600F00100059018209A4666
:102C30008DE8C10669464046FEF73EFB80208DE8E0
:102C4000C10669462E48FEF737FB2F4E2D484FF040
:102C5000C0673060C6E901744FF48068C6E9034874
:102C600074617812B461C6E9074030467462FEF7B9
:102C700099FA08B1FDF71DFEEE64B563224E2148B6
:102C800060361830E6E802074020A6E81101C002CD
:102C900046F81449B461C6E907401B4874626030C5
:102CA000FEF780FA08B1FDF704FEAE64B56306B026
:102CB000BDE8F087154CA142F9D10F4910310C68DD
:102CC00044F480440C60096801F480410591016876
:102CD00041F0020101600068694600F002000590C1
:102CE0004FF460408DE8C1004046CDE90323FEF774
:102CF000E3FADCE7003001403038024000040240D3
:102D00000000024040640240580B002000380040A0
:102D100010B5401EB0F1807F01D3012010BD4FF0EF
:102D2000E02460610F21601703F023FC0020A06104
:102D300007202061002010BD10B590F83C20012A2A
:102D400022D0012280F83C20CA688C6822F44072AC
:102D500022434C6822F4806222430C6822F4006211
:102D600022430C6922F4805222434C6922F400521F
:102D70002243C969002322F480420A4301684A645D
:102D800080F83C30002010BD022010BD70B590F8D6
:102D90003C20012A32D0012480F83C40022280F8F5
:102DA0003D2003685A689D6822F070060A68324325
:102DB0005A60134B02689A4214D0B2F1804F11D07E
:102DC000104B9A420ED0104B9A420BD00F4B9A42A6
:102DD00008D00F4B9A4205D00E4B9A4202D00E4BB0
:102DE0009A4204D1496825F080031943916080F824
:102DF0003D40002180F83C10084670BD022070BDA7
:102E0000000001400004004000080040000C0040A9
:102E100000040140004001400018004010B50400CB
:102E200003D094F83D0010B107E0012010BD002050
:102E300084F83C00204600F01FF8022084F83D0092
:102E4000211D206801F0B2FB012084F8460084F8BF
:102E50003E0084F83F0084F8400084F8410084F884
:102E6000420084F8430084F8440084F8450084F864
:102E70003D00002010BD000008B52349026823482A
:102E80008A4207D1016841F001010160006800F049
:102E900001000AE01D491E4B091F9A4207D108682C
:102EA00040F00200086008681FE0009008BD194B60
:102EB0009A4207D1086840F004000860086800F0F2
:102EC0000400F2E7144B9A4207D1086840F008006A
:102ED0000860086800F00800E7E710498A4207D157
:102EE000016841F002010160006800F00200DCE7C7
:102EF0000B498A42DAD1016841F40031016000686F
:102F000000F40030D1E700000000014044380240E6
:102F10000004004000080040000C00400004014094
:102F20000044014070B5044690F83C00002501289B
:102F300017D0012684F83C60022084F83D00206808
:102F4000826822F0770222F47F428260086850286B
:102F500038D00DDC20284FD005DC90B3102811D1DB
:102F60004AE0022070BD302846D040280AD13BE01C
:102F700060282FD070280DD0B0F5805F03D0B0F559
:102F8000005F12D0012584F83D60002084F83C00E9
:102F9000284670BDCB68D1E90121206801F072FBA1
:102FA0002068816841F0770109E0CB68D1E901210F
:102FB000206801F067FB2068816841F480418160EE
:102FC000E1E719E0CA684968206801F02FFC502148
:102FD000206806E0CA684968206801F038FC602172
:102FE000206801F059FBCEE7CA684968206801F003
:102FF0001DFC40212068F4E7226801461046F0E7F6
:103000002DE9F04186B0044614216846FDF7A2FA86
:10301000474A2168474802240125914210D101689E
:1030200041F0100101600068694600F01000059051
:103030004FF4D4408DE831003F48CDE9034513E01B
:103040003E4ADFF8FC80914213D1016841F004014F
:1030500001600068694600F00400059090158DE855
:103060003100039440460494FEF726F906B0BDE80B
:10307000F081344A032691420ED1016841F00801E3
:1030800001600068694600F00800059010148DE8A2
:1030900071002D480494E7E72C4A914210D1016851
:1030A00041F0800101600068694600F080000590F1
:1030B0004FF4E0508DE83100039425480494D3E7A1
:1030C000244A4027914220D1016841F48071016077
:1030D000016801F480710591016841F0040101600B
:1030E00000680097CDE9014500F00400CDE90460D7
:1030F000694603941848FEF7DFF80097CDE90145CB
:10310000CDE9034669464046AEE7144A9142ADD147
:10311000016841F02001016000680097CDE9014598
:1031200000F02000CDE90460694603940C489BE759
:10313000000001403038024000100240000400400E
:103140000008024000080040000C0240000C004053
:10315000001C0240000401400020024000440140E5
:103160000014024070B5044690F83C0000260D465D
:1031700001280FD0012084F83C006AB1042A1DD038
:10318000082A2FD00C2A3FD00126002084F83C00CA
:10319000304670BD022070BD206801F085FA2068BD
:1031A000816941F0080181612068816921F0040191
:1031B0008161206881692A69114311E0206801F06A
:1031C000A3FA2068816941F4006181612068816906
:1031D00021F480618161206881692A6941EA0221C4
:1031E0008161D2E7206801F0C5FA2068C16941F029
:1031F0000801C1612068C16921F00401C161206832
:10320000C1692A69114311E0206801F0E7FA2068DA
:10321000C16941F40061C1612068C16921F4806124
:10322000C1612068C1692A6941EA0221C161ACE734
:1032300010B5040003D094F83D0010B107E0012060
:1032400010BD002084F83C00204600F01EF802204B
:1032500084F83D00211D206801F0A8F9012084F8C0
:10326000460084F83E0084F83F0084F8400084F86B
:10327000410084F8420084F8430084F8440084F854
:10328000450084F83D00002010BD7047704770472E
:10329000F8B5016804460868CA684B6910F00F0F5A
:1032A0004FF0000559D003F0010602F49077374340
:1032B00065D0C10705D0D10503D5616C41F001018E
:1032C0006164410705D5D90703D0616C41F0020163
:1032D0006164810705D5D90703D0616C41F0040111
:1032E0006164010707D502F02001314303D0616C0E
:1032F00041F008016164616C00293AD0800604D570
:10330000900602D5204601F0E3FA20684069616C1E
:10331000C0F38010090700D460B3204601F0B1FA71
:1033200020684069400621D52068143050E8001F0D
:1033300021F0400140E80012002AF5D1E06BA8B16D
:103340006E490165E06BFDF74AFE002811D0E06B85
:10335000016D01B0BDE8F040084783060FD5930624
:103360000DD52046BDE8F84001F0B2BA2046FFF77F
:103370008EFFF8BD2046FFF78AFF6564F8BD266B17
:103380002023012E7DD1C6067BD5D60679D50868C7
:103390004868009048694FF00206400641D5E16B4D
:1033A000086840680004000CE8D0A28D8242E5D98C
:1033B000E085C869B0F5807F2DD020680C3050E8DA
:1033C000001F21F4807140E80012002AF5D1206826
:1033D000143050E8001F21F0010140E80012002ADB
:1033E000F5D12068143050E8001F21F0400140E87A
:1033F0000012002AF5D184F84230256320680C3091
:1034000050E8001F21F0100140E80012002AF5D119
:10341000E06BFDF79BFD6663A08DE18D401A81B2E4
:103420002AE0A08DE18D401A81B2E08D0028A5D060
:103430000029A3D022680C3252E8000F20F49070CB
:1034400042E80007002FF5D12068143050E8002F23
:1034500022F0010240E80027002FF5D184F8423025
:10346000256320680C3050E8002F22F0100240E85D
:103470000023002BF5D166632046FFF707FFF8BD58
:10348000FFE705062BD5150629D594F8410021281C
:10349000F5D1A068B0F5805F01D12069B0B1206A94
:1034A000411C2162216800784860E08C401E0004C5
:1034B000000CE084E3D12068C16821F08001C16084
:1034C0002068C16841F04001C160D8E7206A0088E7
:1034D000C0F308004860206A801C2062E5E74006CF
:1034E000CDD55006CBD5CA68204622F04002CA602E
:1034F00084F8413000F063F9C1E700007348000828
:1035000070B5040004D094F84100002510B106E025
:10351000012070BD84F84050204600F023F824209C
:1035200084F841002068C16821F40051C160204640
:1035300001F030FA2068016921F4904101612068AE
:10354000416921F02A0141612068C16841F40051BC
:10355000C1606564202084F8410084F842006563FE
:10356000002070BD2DE9F04F87B004461421684655
:10357000FCF7F0FF8648DFF814821438D4F800C056
:10358000834A022103260723002507154FF0400B2D
:103590004FF0006AC44563D1D2F800C04CF0100C63
:1035A000C2F800C0126802F010020592026842F0F0
:1035B00002020260026802F002020592026842F012
:1035C000010202600068894600F001000590802039
:1035D000CDE900090DF1080C98468CE860016946B8
:1035E0006C48FDF769FE7810CDE900090DF1080976
:1035F000694689E860016848FDF75EFE684E6748E5
:10360000D046C6E903577561B56186E80109B8017E
:10361000C6E9075030467562FDF7C4FD08B1FDF7F5
:1036200048F9A663B4635E4E5C486036303830605B
:10363000C6E90185C6E903577561B561F561356273
:1036400030467562FDF7AEFD08B1FDF732F9E6636D
:10365000002205212520B463FEF70EF925203DE068
:10366000DFF840814FF40039C4453CD1484A121F6D
:10367000D2F800C04CF4802CC2F800C0126802F4EA
:1036800080220592026842F00402026000680493FE
:1036900000F0040005904FF440608DE86300694637
:1036A0004148FDF709FE3E4E4048C0363060C6E94D
:1036B00001A5C6E903577561B561C6E907593046EA
:1036C0007562FDF76FFD08B1FDF7F3F8E6630022C0
:1036D00004212720B463FEF7CFF82720FEF7BEF8B9
:1036E00007B0BDE8F08F324B9C45F9D1136843F029
:1036F00020031360126802F020020592026842F073
:1037000040020260006800F0400005904FF48440E1
:103710008DE863000820049069462648FDF7CCFD3B
:103720001E48254E90384FF020683060C6E901856C
:10373000C6E903577561B561C6E907593046756238
:10374000FDF730FD08B1FDF7B4F8E663B4631A4E37
:10375000124860361838C6E903577561B56186E8C6
:1037600001094FF48030C6E9075030467562FDF715
:1037700019FD08B1FDF79DF8A66300220521472039
:10378000B463FEF779F84720A8E700000010014075
:10379000443802400004024000000240B864024085
:1037A000A00E0020004800400008024028600240AF
:1037B0000014014000180240C00F002070477047FD
:1037C000FEE70000F0B500230A24302537261F4607
:1037D00011E000BFB4EB107F02D905EB107C01E0D3
:1037E00006EB107C01F813C001EB430C00015B1CDD
:1037F0008CF80170DBB29342ECD3F0BD7FB50024AE
:1038000015480094019402941249039401604FF406
:103810000031C0E901140461047680F820400F49AA
:10382000C0E90A140125C561C46080F830404561D3
:10383000FDF7E8F808B1FDF73CF81020CDE90005E8
:10384000694602940448FDF737F8002801D0FDF7D7
:1038500030F87FBD002001403C0800200100000F2F
:103860007FB50024154800940194029412490394F2
:1038700001604FF40031C0E901140461047680F85E
:1038800020400F49C0E90A140125C561C46080F8D1
:1038900030404561FDF7B6F808B1FDF70AF8082099
:1038A000CDE90005694602940448FDF705F80028B3
:1038B00001D0FCF7FEFF7FBD0022014084080020FC
:1038C0000100000F0F4810B50D4901600321416050
:1038D00000214FF410228160C0E903124FF400125E
:1038E0004261017641768176C17601774177FDF7B5
:1038F000F0F9002803D0BDE81040FCF7DABF10BD96
:1039000000640040CC0800200F4810B50D4901604C
:103910000321416000214FF410228160C0E90312AD
:103920004FF400124261017641768176C1760177CB
:103930004177FDF7CEF9002803D0BDE81040FCF731
:10394000B8BF10BD00680040F4080020074910B55A
:10395000054808600846FDF7D3FA002803D0BDE803
:103960001040FCF7A6BF10BD003002400C00002044
:10397000294808B5016841F480010160016801F43B
:1039800080010091016841F400110160006800228B
:1039900000F40010009005210C20FDF76DFF0C20B5
:1039A000FDF75CFF002205212F20FDF765FF2F208A
:1039B000FDF754FF002205213920FDF75DFF392076
:1039C000FDF74CFF002205213A20FDF755FF3A2074
:1039D000FDF744FF002205213B20FDF74DFF3B2072
:1039E000FDF73CFF002205214420FDF745FF442060
:1039F000FDF734FF002205214520FDF73DFF45205E
:103A0000FDF72CFF002205214620FDF735FFBDE81C
:103A100008404620FDF722BF3038024010B58EB076
:103A20001C220B496846FCF75BFD0021684602F04A
:103A3000FAFD084C06491C2220601C3107A8FCF73F
:103A40004FFD002107A802F0EEFD60600EB010BD32
:103A50009C7D0008000000202DE9F04387B0142170
:103A60006846FCF777FD68480025016841F00201CF
:103A70000160016801F002010591016841F0400117
:103A80000160016801F040010591016841F0010108
:103A90000160016801F001010591016841F0080130
:103AA0000160016801F008010591016841F004011D
:103AB0000160016801F004010591016841F4807121
:103AC0000160016801F480710591016841F02001F5
:103AD0000160016801F020010591016841F0800159
:103AE0000160016801F080010591016841F0100159
:103AF00001600068454F00F0100005900122402150
:103B00003846FDF7D1FCDFF808810122102140463C
:103B1000FDF7CAFCDFF8FC90012241F201014846A2
:103B2000FDF7C2FC8020CDE900050124694602941E
:103B30003948FDF7C1FB4020CDE9000402946946F5
:103B400038460394FDF7B8FB09204FF40416CDE97D
:103B50000006694602943846FDF7AEFB0720CDE922
:103B600000052E4F694638460295FDF7A5FBCDE9C5
:103B70000045694640460294FDF79EFB1020CDE9C2
:103B80000004022569464046CDE90245FDF794FB55
:103B90003020CDE90006694602943846FDF78CFBDB
:103BA0002003CDE900040294694648460394FDF7DA
:103BB00083FB0094694648460194CDE90245FDF730
:103BC0007BFB062100220846FDF756FE0620FDF786
:103BD00045FE002205210920FDF74EFE0920FDF7D4
:103BE0003DFE002205210A20FDF746FE0A20FDF7D2
:103BF00035FE002205211720FDF73EFE1720FDF7B8
:103C00002DFE07B0BDE8F0833038024000180240B6
:103C10000000024000040240002002400008024070
:103C20000D4810B50B4901600C49416000214FF46B
:103C300080428160C0E9031241618161C16101621A
:103C4000FDF73EFC002803D0BDE81040FCF731BE74
:103C500010BD0000005400401C090020801A06001E
:103C60000D4810B50B4901600C49416000214FF42B
:103C700080428160C0E9031241618161C1610162DA
:103C8000FDF71EFC002803D0BDE81040FCF711BE74
:103C900010BD00000058004070090020801A060086
:103CA0000D4810B50B4901600C49416000214FF4EB
:103CB00080428160C0E9031241618161C16101629A
:103CC000FDF7FEFB002803D0BDE81040FCF7F1BD76
:103CD00010BD0000005C0040C4090020801A0600EE
:103CE000074910B5054808600846FEF759FE002848
:103CF00003D0BDE81040FCF7DCBD10BD0008065045
:103D0000780A00200C4810B50A49016000217C2285
:103D1000C0E9011240F67F42C0E90321416181619F
:103D2000FEF76CFE002803D0BDE81040FCF7C1BDD3
:103D300010BD000000280040880A0020104810B57F
:103D40000E4901604FF482714160002102228160BE
:103D5000C0E9031201224261520282613822C0E9A5
:103D60000721416281620A21C162FEF7CFFE00286D
:103D700003D0BDE81040FCF79CBD10BD00300140F1
:103D8000A80A0020104810B50E4901604FF4827156
:103D90004160002102228160C0E9031201224261D8
:103DA000520282613822C0E90721416281620A2100
:103DB000C162FEF7ABFE002803D0BDE81040FCF75F
:103DC00078BD10BD00380040000B002010B588B051
:103DD0001C216846FCF7BEFB144813490024C0E9C7
:103DE000001441F28731C0E9024104618461FFF7A8
:103DF00015F808B1FCF75DFD0C48FFF719FA08B19A
:103E0000FCF757FD6020CDE90004029400226946CA
:103E100006480494FFF7A6F908B1FCF74AFD0348E9
:103E2000FFF7EEF808B010BD00440140800D0020FF
:103E300010B596B000240F9410941194129413941A
:103E40001C2168461494FCF785FB202107A8FCF789
:103E500081FB354833490160A721C0E9011440F6D0
:103E6000BA31C0E9031444618461FEF7D7FF08B199
:103E7000FCF71FFD4FF480500F900FA92A48FFF761
:103E800051F808B1FCF715FD2748FFF7D1F908B143
:103E9000FCF70FFD139413A923481494FEF776FF43
:103EA00008B1FCF706FD602000904FF47A70CDE970
:103EB0000104039404940594002269461A48069468
:103EC000FFF750F908B1FCF7F4FC042269461648E4
:103ED000FFF748F908B1FCF7ECFC082269461248E4
:103EE000FFF740F908B1FCF7E4FC0C2269460E48E4
:103EF000FFF738F908B1FCF7DCFC07940894099443
:103F00004FF400500A94CDE90B4007A906480E94DF
:103F1000FEF712FF08B1FCF7CCFC0348FFF770F87E
:103F200016B010BD00000140180C002010B58EB076
:103F300000240794089409940A940B941C21684661
:103F40000C94FCF707FB1E481C49C0E9001442F220
:103F5000CF01C0E9024104618461FEF75FFF08B14F
:103F6000FCF7A7FC4FF48050079007A91448FEF710
:103F7000D9FF08B1FCF79DFC1148FFF759F908B1CA
:103F8000FCF797FC0B940BA90D480C94FEF7FEFE72
:103F900008B1FCF78EFC6020CDE9000402940822F1
:103FA000694607480494FFF7DDF808B1FCF781FC87
:103FB0000348FFF725F80EB010BD000000040040D4
:103FC000600C002010B58EB000240794089409946A
:103FD0000A940B941C2168460C94FCF7BBFA1E480B
:103FE0001C490160A721C0E901144FF6FF71C0E927
:103FF00003148461FEF712FF08B1FCF75AFC4FF47A
:104000008050079007A91448FEF78CFF08B1FCF711
:1040100050FC1148FFF70CF908B1FCF74AFC0B946F
:104020000BA90D480C94FEF7B1FE08B1FCF741FC5A
:104030006020CDE9000402940822694606480494F1
:10404000FFF790F808B1FCF734FC0348FEF7D8FFFF
:104050000EB010BD00080040A80C002010B58EB0B6
:1040600000240794089409940A940B941C21684630
:104070000C94FCF76FFA26482449C0E900144FF667
:10408000FF71C0E9024104618461FEF7C7FE08B117
:10409000FCF70FFC4FF48050079007A91C48FEF76F
:1040A00041FF08B1FCF705FC1948FFF7C1F808B15A
:1040B000FCF7FFFB0B940BA915480C94FEF766FE6A
:1040C00008B1FCF7F6FB6020CDE900040294002261
:1040D00069460F480494FFF745F808B1FCF7E9FB7F
:1040E000042269460A48FFF73DF808B1FCF7E1FBF6
:1040F000082269460648FFF735F808B1FCF7D9FBF6
:104100000348FEF77DFF0EB010BD0000000C00401C
:10411000F00C002010B596B000240F941094119468
:10412000129413941C2168461494FCF713FA20216E
:1041300007A8FCF70FFA2D482B490160A721C0E919
:10414000011444F61F61C0E9031444618461FEF761
:1041500065FE08B1FCF7ADFB4FF480500F900FA93E
:104160002248FEF7DFFE08B1FCF7A3FB1F48FFF76C
:104170005FF808B1FCF79DFB139413A91B48149436
:10418000FEF704FE08B1FCF794FB602000904FF4AA
:104190007A70CDE9010403940494059400226946E1
:1041A00012480694FEF7DEFF08B1FCF782FB0422FA
:1041B00069460E48FEF7D6FF08B1FCF77AFB079474
:1041C000089409944FF400500A94CDE90B4007A9D4
:1041D00006480E94FEF7B0FD08B1FCF76AFB0348F1
:1041E000FEF70EFF16B010BD00040140380D002090
:1041F0000C4810B50A4901604FF4E13141600021DB
:1042000081600C22C160C0E904128161C161FFF7C5
:1042100077F9002803D0BDE81040FCF74ABB10BD79
:1042200000100140C80D00200D4810B50B49016079
:104230000C49416000214FF480628160C0E90312A3
:104240000C22C0E90521C161FFF75AF9002803D00B
:10425000BDE81040FCF72DBB10BD00000048004039
:10426000100E0020A08601000C4810B50A4901601C
:104270004FF4E1314160002181600C22C160C0E94E
:1042800004128161C161FFF73BF9002803D0BDE84A
:104290001040FCF70EBB10BD00140140580E00206A
:1042A00010B500220F49104800F0FCFF08B1FCF7E0
:1042B00000FB0E490C4801F00CFA08B1FCF7F9FAC2
:1042C0000B49094800F0BAFD08B1FCF7F2FA0648BC
:1042D00001F082FA002803D0BDE81040FCF7E9BAEB
:1042E00010BD000014000020801000205C010020A0
:1042F00064000020FEE7FEE70148FDF73BBC00003C
:104300007C1500202DE9F04103680D4604461E6C23
:1043100003EB4511D1F8080B94F806E04FF4004781
:104320004FF0200C04F29C42BEF1010F09D0DFF8DF
:1043300098E0764539D1020432D500BFC1F8087B38
:104340003FE0224B5FEA007E04D59E4239D900044B
:10435000F4D436E05FEA806E02D5C1F808CB30E0D5
:1043600010F0280F2DD19E4201D90004E6D405EBB0
:10437000C50004EB8000D1F8101BD0F87432C1F3F3
:104380001201591AC0F8681200F51570ADB9036929
:104390001BB1C2681144C1600FE0012120680AE02E
:1043A00080060AD5C1F808CB07E035B9D4F8640215
:1043B00018B90021184601F089FDE9B22046FDF741
:1043C000C1FA0020BDE8F0810A31544F0A30544F41
:1043D0002DE9F84F0E4601EBC60100EB8104814642
:1043E0000568D4E909101434884202D90120BDE8D7
:1043F000F88F081AA168814200D20846C01C8708BD
:1044000005EB46181BE000BFA0EB010AA068504571
:1044100000D282460AF10300870899F8060000904E
:104420001FFA8AF3F2B22846E16802F08DF8E168DB
:1044300001EB0A00E060616901EB0A006061D8F8F5
:10444000180980B2B84205D3D4E90401814201D2EF
:104450000028D9D1D4E90401884208D806F00F0118
:1044600001208840D5F834188143C5F8341800205D
:10447000BDE700002DE9F041044600680025C16851
:10448000490618D4C16841F08001C160FDF712F8F7
:1044900006464FF47A78042707E000BFFDF70AF8D4
:1044A000801B404501D9677701252068C068400618
:1044B00001D4002DF2D02846BDE8F08170B5044645
:1044C00000680025C16821F08001C1602068806813
:1044D000800606D42046FEF7FDFA10B1042060776E
:1044E0000125284670BD0178407841EA00207047D8
:1044F00010B5FDF755F903F085FA012803D0BDE8A2
:10450000104002F0A9BF10BD30B593B0302168460D
:10451000FCF720F814210CA8FCF71CF81D48002516
:10452000016841F080510160006800F080501190F6
:104530001948016841F4804101600068022400F4D8
:104540008040119001200090000401908001CDE98D
:10455000064006200890A820CDE9090407200B900A
:104560006846FEF767F808B172B6FEE70CA90F209F
:1045700081E831004FF4A0500F904FF4805010901C
:1045800005210CA8FDF764FF002801D072B6FEE7F4
:1045900013B030BD4038024000700040024801684E
:1045A00041F470010160704788ED00E0F0B50268E9
:1045B000294C2A4D2A4E2B4F2B4B4FF0804CA042BA
:1045C00009D0604507D0A84205D0B04203D0B84218
:1045D00001D0984204D122F0700E4A6842EA0E02DD
:1045E000A0421BD0604519D0A84217D0B04215D0C8
:1045F000B84213D0984211D01C4DA8420ED01C4D89
:10460000A8420BD01B4DA84208D01B4DA84205D094
:104610001A4DA84202D01A4DA84203D122F4407587
:10462000CA682A434D6922F080022A4302608A68E0
:10463000C2620A688262A04201D0984201D109692F
:104640000163012141610169C90703D0016921F0BA
:1046500001010161F0BD00000000014000040040C4
:1046600000080040000C00400004014000400140F0
:10467000004401400048014000180040001C004078
:104680000020004010B5846842EA032224F47F44ED
:104690000A432243826010BD826822F070020A43FE
:1046A00042F0070181607047F0B5036A026A22F0A8
:1046B0000102026242688469124E24F073050C689C
:1046C0002C4323F002058B682B430D4DA84201D0EB
:1046D000B04205D123F00807CB683B4323F0040325
:1046E000A84201D0B04205D14D6922F44072154371
:1046F0008A692A4342608461496841630362F0BD6C
:104700000000014000040140F0B5026A036A23F092
:1047100010030362436884690D6824F4E64444EAA4
:1047200005248D6822F0200242EA05120F4D104E3A
:10473000A84201D0B04206D1CF6822F0800242EAFE
:10474000071222F04002A84201D0B04207D14D69C1
:1047500023F4406343EA85038D6943EA850343609C
:104760008461496881630262F0BD0000000001407D
:1047700000040140F0B5026A036A23F48073036207
:104780004368C46922F4007224F073050C68124E69
:104790002C438D6842EA05220E4DA84201D0B0425A
:1047A00006D1CF6822F4006242EA072222F4806236
:1047B000A84201D0B04207D14D6923F4405343EAE7
:1047C00005138D6943EA05134360C4614968C163F9
:1047D0000262F0BD000001400004014030B5046AEF
:1047E000026A22F4805202624268C3690D6823F4AF
:1047F000E64343EA05238D6824F4005444EA053473
:10480000084DA84202D0084DA84204D14D6922F4B7
:10481000804242EA85124260C361496801640462D1
:1048200030BD0000000001400004014010B5036AE3
:10483000046A24F001040462846924F0F00444EA68
:10484000021423F00A020A438461026210BD10B50B
:10485000036A046A24F010040462846923F0A0034C
:1048600024F4704444EA023243EA01118261016295
:1048700010BD10B5806B0021C185C184FEF707FD16
:1048800010BD01680C3151E8002F22F4907241E80C
:104890000023002BF5D10168143151E8002F22F0DC
:1048A000010241E80023002BF5D1016B012909D158
:1048B00001680C3151E8002F22F0100241E800237A
:1048C000002BF5D1202180F84210002101637047B0
:1048D00008B590F84210222901D0022008BD826854
:1048E0004FF480539A4201D1016921B1816A9A4201
:1048F0001BD04AB10AE00268816A5268C2F308021A
:104900000A80816A891C08E0026972B102685268F3
:1049100002F07F020A70816A491C8162C18D491EC2
:104920000904090CC18503D01BE002685268F1E755
:104930000168CA6822F02002CA600168CA6822F4CD
:104940008072CA6001684A6922F001024A6120212E
:1049500080F8421000214163026B012A03D0FEF768
:104960002DFF002008BD016301680C3151E8002FC4
:1049700022F0100241E80023002BF5D101680A68FB
:10498000D20602D50A6849680091818DFEF77EFC47
:10499000E7E7000070B5044600680169E26821F4A9
:1049A0004051114301612169A068E26908436169CE
:1049B000114308432168CA6849F20C639A430243D1
:1049C000CA6020684169A26921F4407111434161C4
:1049D00031492068884202D03049884202D1FDF72F
:1049E000E7FD01E0FDF7D4FDE2690023192164250C
:1049F0003226B2F5004F626828D0A0FB0101930F68
:104A00009200FBF7B1FC0146B0FBF5F06FF0180225
:104A1000504301EB800006EB0010B0FBF5F000F016
:104A2000F002B1FBF5F002EB0012B1FBF5F06FF014
:104A30001803584301EB800006EB0010B0FBF5F0C3
:104A400000F00F0021681044886070BDA0FB0101D8
:104A500092185B41FBF788FC0146B0FBF5F00201C0
:104A6000B1FBF5F06FF01803584301EB800006EB43
:104A7000C000B0FBF5F000F0F80002EB4002B1FB23
:104A8000F5F0584301EB800006EBC000B0FBF5F0F9
:104A900000F00700D6E700000010014000140140BC
:104AA0000148FEF7F5BB0000C80D00202DE9F041DC
:104AB0000C46D0F8D412D0F8C82200EB8101D1F80E
:104AC000C01229B304F00F0606EB860300EB830542
:104AD0000027AB694BB106EBC60602EB8602D26932
:104AE000B3FBF2F602FB1632A2B1C1F81472D0F891
:104AF000D42200EB8200D0F8C40203692BB1D1F8B4
:104B00000802224601F5047198470020BDE8F081B3
:104B10000320FBE700231A462146AF6100F0BAFDEF
:104B2000F3E770B50546D0F8D40205EB8000D0F865
:104B3000C04294B1284600F08DFCC4F80C02D5F8B0
:104B4000D412D4F8040205EB8101D1F8C412CA686A
:104B500004F503719047002070BD032070BD000074
:104B600070B5224D0446297800F0B8FB287800265D
:104B700000F00F0000EB800004EB80008684697871
:104B8000204600F0ABFB687800F00F0000EB8000DF
:104B900004EB8000A0F86461A978204600F09EFB39
:104BA000A87800F00F0000EB800004EB8000868402
:104BB000C684D4F8D40204EB8000D0F8C01299B1B6
:104BC000D0F8C40240688047D4F8D40204EB8000D7
:104BD000D0F8C00200F081FFD4F8D40204EB8000CA
:104BE000C0F8C062C4F8BC62002070BD080100209B
:104BF00010B5D0F8D41200EB8100D0F8C04284B1D7
:104C0000D0F8C41259B194F80002FF2807D08B687D
:104C100094F8012221469847FF2084F800020020E2
:104C200010BD032010BD00000A210180004870471C
:104C30000C01002070B5064682210C4800F0D1FA24
:104C400005460121094800F0CCFA044681210748B5
:104C500000F0C7FA0DB11021A971402104B1A18063
:104C600000B1818043203080004870BD18010020D1
:104C700070B5064682210D4800F0B3FA05460121C1
:104C80000A4800F0AEFA04468121084800F0A9FA6B
:104C90000DB11021A9714FF4007104B1A18000B1D0
:104CA000818043203080014870BD00001801002041
:104CB00070B5064682210C4800F093FA05460121A2
:104CC000094800F08EFA04468121074800F089FA6D
:104CD0000DB11021A971402104B1A18000B18180E2
:104CE00043203080004870BD180100202DE9F047B6
:104CF00004464FF40775284600F0F0FE06004FF01A
:104D0000000863D02946FBF725FCD4F8D4023C4DBB
:104D100004EB80004FF01009C0F8C062C4F8BC6218
:104D2000207C4FF4007A0127F0B340230222297837
:104D3000204600F0FAFB2878402300F00F0000EB3B
:104D4000800004EB8000878402226978204600F00E
:104D5000ECFB6878082300F00F0000EB800004EB08
:104D600080000322A0F86471A978204601F00F01A9
:104D700001EB810104EB8101A1F82690A97800F0F4
:104D8000D4FBA87800F00F0000EB800004EB80005B
:104D90008784C6F80482D4F8D402474604EB800026
:104DA000D0F8C402006800E018E006F501768047FC
:104DB0003761776132687AB1207CF8B14023697835
:104DC000204600F0BEFB0020BDE8F087D4F8D412E6
:104DD00004EB8101C1F8C0820220F5E753460222AC
:104DE0002978204600F0A1FB2878534600F00F00F8
:104DF00000EB800004EB80008784A5E75346DEE7E4
:104E00000801002010B5D0F8D41200EB8101D1F8D0
:104E1000C01259B1027C084C002AD1F8042207D0F4
:104E20004023617800F08DFB002010BD032010BDF1
:104E30004FF40073F5E700000801002039B1D0F805
:104E4000D42200EB8200C0F8C41200207047032077
:104E50007047D0F8D42200EB8200D0F8C00218B11D
:104E6000C0F804120020704703207047D0F8D432F5
:104E700000EB8300D0F8C00228B1C0F81022C0F8BF
:104E8000081200207047032070472DE9FC410646B8
:104E9000D0F8D4020C4606EB80000021D0F8C07296
:104EA0008DF80010ADF804100D4637B1217811F0DF
:104EB00060022FD0202A4BD102E00320BDE8FC8104
:104EC000E288F2B109060DD5D0F8C40263783946FC
:104ED000D0F808C01846E047E288072A00D9072220
:104EE00039462DE0607887F80002E088402800D33A
:104EF0004020C2B287F801223946304600F058F807
:104F00002BE0D0F8C4026378002286682146184658
:104F1000B04722E0607830B101281ED00A2809D0BD
:104F20000B2815D110E096F89C02032810D102221C
:104F300001A905E096F89C02032809D101226946DF
:104F4000304600F04FF808E096F89C02032804D0A1
:104F50002146304600F021F803252846AEE710B57B
:104F6000D0F8B82200245268904700B103242046AC
:104F700010BD0020704700207047134610B50A4648
:104F8000002100F0DEFA002010BD134610B50A46DD
:104F9000002100F07FFB002010BD10B504468021E9
:104FA00000F059FB2046BDE81040002100F053BB43
:104FB00010B50323C0F89432C0F858211346C0F846
:104FC0005C210A46002100F0BCFA002010BD10B59B
:104FD0000521C0F8941200231A46194600F0B1FAD0
:104FE000002010BD10B50223C0F894328261134630
:104FF000C2610A46002100F04DFB002010BD10B533
:105000000421C0F8941200231A46194600F042FB0E
:10501000002010BD10B50A46024903A000F00FF9A8
:10502000004810BD601A002043444320436F6E6661
:105030006967000012200880004870473400002093
:1050400010B50A46024903A000F0F9F8004810BD67
:10505000601A002043444320496E746572666163A0
:1050600065000000042008800048704730000020E0
:1050700010B50A46024903A000F0E1F8004810BD4F
:10508000601A002053544D6963726F656C656374D8
:10509000726F6E696373000010B50A46024903A07F
:1050A00000F0CDF8004810BD601A002053544D3375
:1050B00032205669727475616C20436F6D506F7247
:1050C0007400000010B51A2008800A480168001D0D
:1050D0000468001D0068081809D008220649FEF778
:1050E00071FB0549042210312046FEF76BFB024894
:1050F000801E10BD107AFF1F4A000020F8B504463C
:105100000020ADF8000048880D46010A08295FD24A
:10511000DFE801F05E0409175E5E3C45D4F8B41286
:10512000207C0A6819E0207C02260028D4F8B80206
:1051300005D0C16A684688470146467039E0816AF1
:10514000F8E7C0B2062843D2DFE800F0030A1014E3
:10515000181CD4F8B402426805E0694690471CE088
:10516000D4F8B402826892B3207CF6E7D4F8B40293
:10517000C268F8E7D4F8B4020269F4E7D4F8B402DC
:105180004269F0E7D4F8B4028269ECE7207CF0B918
:10519000D4F8B802416B68468847014609E0207C94
:1051A000A8B9D4F8B802016B6846884701460720C1
:1051B0004870EA888AB1BDF8000040B1824200D947
:1051C0000246ADF800202046FFF70CFFF8BDFFE7D0
:1051D00029462046FFF7E1FEF8E72046FFF70FFFDC
:1051E000F4E778B50E4642880178002504468A42E5
:1051F00012D9ADF800100AE0694600F019F84178BC
:10520000052904D181780546B14205D00025618881
:10521000BDF800209142EFD8284678BD0146002015
:1052200002E0401CC0B2491C0A78002AF9D170473C
:105230000A8803781A440A8001780844704770B5D8
:1052400016460D46002820D00446FFF7E7FF02214E
:1052500001EB40014FF40070814204D82046FFF773
:10526000DDFF4000801C308030782870032068709B
:105270000220002206E02954401CC0B22A54401CDF
:10528000C0B2641C21780029F5D170BD01004FF037
:10529000000004D0012901D0022901D00320704769
:1052A0000120704778B10023C0F8B832C0F8C4328A
:1052B000C0F8D03209B1C0F8B412012180F89C12B4
:1052C000027000F0CBB80320704710B5D0F8C802C8
:1052D000FCF77AFBBDE81040FFF7D8BF10B5D0F857
:1052E000C802FCF74CFBBDE81040FFF7CFBF2DE92B
:1052F000F04117460446002521B194F89C0203288A
:1053000042D04CE0D4F8941204F11400022935D1B3
:10531000D0E902639E4206D9F21A826039462046DD
:10532000FFF733FE0FE0B34214D14068984211D327
:10533000D4F8981288420DD2002211462046FFF779
:1053400024FEC4F8985200231A461946204600F05D
:10535000F8F813E094F89C02032808D1D4F8B802B6
:10536000C16821B1C4F8D452C16820468847802161
:10537000204600F070F92046FFF729FE94F8A002BD
:1053800068B184F8A0520AE0D4F8B802426932B198
:10539000C4F8D452426920469047002800D100202A
:1053A000BDE8F08170B513460446002221B194F89F
:1053B0009C02032830D03AE0D4F8941204F5AA7085
:1053C000032934D1D0E902518D420AD96A1A826088
:1053D0000846824200D3024619462046FFF7CDFD1B
:1053E00025E094F8AA0210F01F0003D0012802D093
:1053F000022800D0002294F89C02032808D1D4F897
:10540000B802016921B1C4F8D42201692046884755
:105410002046FFF7F4FD0AE0D4F8B802836933B1FF
:10542000C4F8D422826920469047002800D1002089
:1054300070BD0020704710B50024012180F89C1237
:10544000D0F8B82222B152680179904700B1032404
:10545000204610BDD0F8C802FCF7E3BA10B50178B9
:1054600039BB15490222C1F8E004C0F8C8124FF058
:10547000A040086004200871CA71002088714A7237
:105480008872C87208738873C8730846FCF728FED0
:1054900008B1FBF70EFA80210748FCF720FA4022FA
:1054A00000210548FCF71FFA802201210248FCF781
:1054B0001AFA002010BD00007C1500200A0601F039
:1054C0007F01D0F8C80201EBC10100EB810001D5DA
:1054D000807D704790F85602704710B5D0F8D422FE
:1054E00000EB8202D2F8B82222B190F89C32032B52
:1054F00002D004E0032010BD126A02B190470020E0
:1055000010BD10B5D0F8D42200EB8202D2F8B82238
:1055100022B190F89C32032B02D004E0032010BD8E
:10552000526A02B19047002010BD10B51C461346C8
:10553000D0F8C8022246FCF77DFABDE81040FFF71C
:10554000A5BE10B5D0F8C802FCF7A5FABDE810401A
:10555000FFF79CBE2DE9F04100260125044680F8A6
:105560009C52C4F894626660C4F8A46280F8A06299
:10557000D0F8B80230B1426822B1002120469047ED
:1055800000B103260022402311462046FFF7CDFF3D
:105590004027A4F864513B46002280212046C4F8ED
:1055A0006071FFF7C2FFA58430462762BDE8F08135
:1055B00090F89C12042903D190F89D1280F89C1257
:1055C0000020704710B590F89C12032905D1D0F83F
:1055D000B81211B1C96901B18847002010BD01742A
:1055E0000020704710B5D0F8C802FCF73FFEBDE8B8
:1055F0001040FFF74BBE70B5044600F2AA200546E6
:1056000000F051F80120C4F89402B4F8B002C4F8D4
:10561000980294F8AA0210F01F010AD001290ED0B6
:10562000022912D000F080012046BDE8704000F051
:1056300012B829462046BDE8704000F0CFB8294690
:105640002046BDE8704000F00FBA29462046BDE86C
:10565000704000F059B910B5D0F8C802FCF737FA1D
:10566000BDE81040FFF712BE10B5D0F8C802FCF735
:1056700017FEBDE81040FFF709BE90F89C12042900
:1056800003D090F89C1280F89D12042180F89C129F
:105690000020704710B5D0F8C802FCF751FABDE8F9
:1056A0001040FFF7F3BD70B5054611F8010B2870E7
:1056B000087868704C1C2046FEF715FF6880A41C13
:1056C0002046FEF710FFA880A01CFEF70CFFE88024
:1056D00070BD38B504460020ADF80000A1B1C4F893
:1056E000B812D4F8D40204EB8000D0F8B802C16A32
:1056F00019B168468847C4F8D002D4F8D802401CD3
:10570000C4F8D802002038BD032038BD024600206E
:10571000D2F8B832002B02D01B68104618477047E9
:105720002DE9F04188462B4E8978002504463170DA
:10573000012906D941462046FFF72FFC0320BDE88A
:10574000F08194F89C02022702280CD003281DD077
:1057500041462046FFF721FC31782046FFF7FFFB4A
:1057600003252846EBE789B320466160FFF7CEFFAB
:10577000050004D041462046FFF70FFC1DE02046FF
:10578000FFF73DFC032084F89C02EAE7C1B16068A2
:1057900088421BD0C1B22046FFF7E1FB317820469A
:1057A0006160FFF7B3FF050010D041462046FFF7C8
:1057B000F4FB21792046FFF7D2FB84F89C72D0E7F6
:1057C00084F89C7220466160FFF7C9FB2046FFF712
:1057D00016FCC6E704010020FFF746BF2DE9F041A3
:1057E0000A78002512F060020CD0202A01D0402A4D
:1057F0007DD1D0F8D42200EB8202D2F8B822926890
:10580000904731E04B78002201260A2B6FD2DFE867
:1058100003F041666E586E08056E2D29FFF76EFC89
:1058200067E004468888D8B9C888C8B948888028FD
:1058300016D200F07F0794F89C02032810D084F859
:105840009E7239462046FFF7CDFE2046FFF7D7FB74
:105850001FB1022084F89C024BE084F89C6248E06F
:10586000204644E0FFF75CFF054642E0CB88012B71
:105870003DD190F89C32012B04D0022B02D0032B97
:1058800035D104E08260012200F1080116E0012216
:10589000011D13E090F89C22012A03D0022A01D0B6
:1058A000032A24D1CA88022A21D1C660D0F8A412C2
:1058B00009B10321C160022200F10C01FFF792FB44
:1058C00017E04A88012A02D0022A03D00FE0C0F86C
:1058D000A46216E08988090A80F8A01211E090F805
:1058E0009C32012B08D0022B06D0032B04D0FFF7EB
:1058F00054FB2846BDE8F08149880129F9D1C0F858
:10590000A422FFF77CFBF4E72DE9F0410546087877
:105910000C790E464FF0000810F060000BD02028E4
:1059200001D040286AD121462846FFF722FBFF28F4
:1059300000D0D8B395E07078C8B3012824D00328EC
:105940005CD195F89C02022802D0032856D10CE0C5
:10595000002C53D0802C51D021462846FFF77BFEE7
:1059600080212846FFF777FE7BE0708840B93CB184
:10597000802C05D0C88818B921462846FFF76BFE51
:105980002846FFF73CFB6CE095F89C020228DFD02C
:10599000032863D1708880BB600603D02146284667
:1059A000FFF793FC2846FFF72AFBBCE700E00AE07C
:1059B000C5F8D402D5F8B8028268F2B1314628465B
:1059C000904780464DE095F89C020027022802D0BF
:1059D000032843D113E00CB1802C3FD1200604F002
:1059E0007F0000EB800005EB800101D5143101E060
:1059F00001F5AA7102220F602CE032E02EE02006B1
:105A000004F00F0000EB800005EB800009D5808CCE
:105A100020B304F07F0000EB800005EB8006143615
:105A20000AE0B0F86401C8B104F07F0000EB800028
:105A300005EB800606F5AA764CB1802C07D02146EE
:105A40002846FFF73BFD10B10120306000E03760D1
:105A5000022231462846FFF7C5FA02E02846FFF742
:105A60009CFA4046BDE8F08170B5054608780024F0
:105A70000E4610F0600003D0202801D0402827D126
:105A800095F89C02012803D0022801D003281FD1D9
:105A9000B088C1B201291AD8C1B22846FFF76BFA03
:105AA000FF280CD058B9D5F8B8128A683AB1C5F8B1
:105AB000D4028A68314628469047044600E0032411
:105AC000F088204307D12846FFF799FA03E03146D2
:105AD0002846FFF762FA204670BD704700487047BD
